{
  "contractName": "CompanyTreasuryManager",
  "abi": [
    {
      "inputs": [
        {
          "internalType": "address",
          "name": "_roleManagementAddress",
          "type": "address"
        },
        {
          "internalType": "address",
          "name": "_itemsManagementAddress",
          "type": "address"
        },
        {
          "internalType": "uint256",
          "name": "_expectedInitialCapital",
          "type": "uint256"
        }
      ],
      "stateMutability": "payable",
      "type": "constructor",
      "payable": true
    },
    {
      "anonymous": false,
      "inputs": [
        {
          "indexed": true,
          "internalType": "address",
          "name": "candidate",
          "type": "address"
        },
        {
          "indexed": false,
          "internalType": "uint256",
          "name": "amount",
          "type": "uint256"
        }
      ],
      "name": "BoardMemberContributionReceived",
      "type": "event"
    },
    {
      "anonymous": false,
      "inputs": [
        {
          "indexed": true,
          "internalType": "address",
          "name": "comAddress",
          "type": "address"
        }
      ],
      "name": "CustomerOrderManagementAddressSet",
      "type": "event"
    },
    {
      "anonymous": false,
      "inputs": [
        {
          "indexed": true,
          "internalType": "uint256",
          "name": "orderId",
          "type": "uint256"
        },
        {
          "indexed": true,
          "internalType": "address",
          "name": "customer",
          "type": "address"
        },
        {
          "indexed": false,
          "internalType": "uint256",
          "name": "amount",
          "type": "uint256"
        }
      ],
      "name": "CustomerRefundProcessedFromTreasury",
      "type": "event"
    },
    {
      "anonymous": false,
      "inputs": [
        {
          "indexed": false,
          "internalType": "string",
          "name": "internalOrderId",
          "type": "string"
        },
        {
          "indexed": true,
          "internalType": "address",
          "name": "warehouse",
          "type": "address"
        },
        {
          "indexed": false,
          "internalType": "uint256",
          "name": "amount",
          "type": "uint256"
        }
      ],
      "name": "EscrowRefunded",
      "type": "event"
    },
    {
      "anonymous": false,
      "inputs": [
        {
          "indexed": true,
          "internalType": "address",
          "name": "newDirector",
          "type": "address"
        }
      ],
      "name": "FinanceDirectorSet",
      "type": "event"
    },
    {
      "anonymous": false,
      "inputs": [
        {
          "indexed": true,
          "internalType": "address",
          "name": "from",
          "type": "address"
        },
        {
          "indexed": false,
          "internalType": "uint256",
          "name": "amount",
          "type": "uint256"
        }
      ],
      "name": "FundsDeposited",
      "type": "event"
    },
    {
      "anonymous": false,
      "inputs": [
        {
          "indexed": true,
          "internalType": "address",
          "name": "by",
          "type": "address"
        },
        {
          "indexed": true,
          "internalType": "address",
          "name": "recipient",
          "type": "address"
        },
        {
          "indexed": false,
          "internalType": "uint256",
          "name": "amount",
          "type": "uint256"
        },
        {
          "indexed": false,
          "internalType": "string",
          "name": "reason",
          "type": "string"
        }
      ],
      "name": "GeneralWithdrawal",
      "type": "event"
    },
    {
      "anonymous": false,
      "inputs": [
        {
          "indexed": false,
          "internalType": "uint256",
          "name": "amount",
          "type": "uint256"
        }
      ],
      "name": "InitialCapitalReceived",
      "type": "event"
    },
    {
      "anonymous": false,
      "inputs": [
        {
          "indexed": true,
          "internalType": "address",
          "name": "by",
          "type": "address"
        },
        {
          "indexed": true,
          "internalType": "address",
          "name": "toRoleHolder",
          "type": "address"
        },
        {
          "indexed": false,
          "internalType": "uint256",
          "name": "amount",
          "type": "uint256"
        }
      ],
      "name": "InternalTransfer",
      "type": "event"
    },
    {
      "anonymous": false,
      "inputs": [
        {
          "indexed": true,
          "internalType": "address",
          "name": "previousOwner",
          "type": "address"
        },
        {
          "indexed": true,
          "internalType": "address",
          "name": "newOwner",
          "type": "address"
        }
      ],
      "name": "OwnershipTransferred",
      "type": "event"
    },
    {
      "anonymous": false,
      "inputs": [
        {
          "indexed": true,
          "internalType": "address",
          "name": "rmFullAddress",
          "type": "address"
        }
      ],
      "name": "RoleManagementFullAddressSet",
      "type": "event"
    },
    {
      "anonymous": false,
      "inputs": [
        {
          "indexed": true,
          "internalType": "address",
          "name": "setBy",
          "type": "address"
        },
        {
          "indexed": true,
          "internalType": "address",
          "name": "warehouse",
          "type": "address"
        },
        {
          "indexed": true,
          "internalType": "address",
          "name": "supplier",
          "type": "address"
        },
        {
          "indexed": false,
          "internalType": "uint256",
          "name": "maxAmount",
          "type": "uint256"
        }
      ],
      "name": "SpendingPolicySet",
      "type": "event"
    },
    {
      "anonymous": false,
      "inputs": [
        {
          "indexed": false,
          "internalType": "string",
          "name": "internalOrderId",
          "type": "string"
        },
        {
          "indexed": true,
          "internalType": "address",
          "name": "warehouse",
          "type": "address"
        },
        {
          "indexed": true,
          "internalType": "address",
          "name": "supplier",
          "type": "address"
        },
        {
          "indexed": false,
          "internalType": "uint256",
          "name": "amount",
          "type": "uint256"
        }
      ],
      "name": "SupplierPaymentEscrowed",
      "type": "event"
    },
    {
      "anonymous": false,
      "inputs": [
        {
          "indexed": false,
          "internalType": "string",
          "name": "internalOrderId",
          "type": "string"
        },
        {
          "indexed": true,
          "internalType": "address",
          "name": "supplier",
          "type": "address"
        },
        {
          "indexed": false,
          "internalType": "uint256",
          "name": "amount",
          "type": "uint256"
        }
      ],
      "name": "SupplierPaymentReleased",
      "type": "event"
    },
    {
      "anonymous": false,
      "inputs": [
        {
          "indexed": true,
          "internalType": "address",
          "name": "wsomAddress",
          "type": "address"
        }
      ],
      "name": "WarehouseSupplierOrderManagementAddressSet",
      "type": "event"
    },
    {
      "inputs": [],
      "name": "INTERNAL_ROLE_TOP_UP_AMOUNT",
      "outputs": [
        {
          "internalType": "uint256",
          "name": "",
          "type": "uint256"
        }
      ],
      "stateMutability": "view",
      "type": "function",
      "constant": true
    },
    {
      "inputs": [],
      "name": "INTERNAL_ROLE_TOP_UP_THRESHOLD",
      "outputs": [
        {
          "internalType": "uint256",
          "name": "",
          "type": "uint256"
        }
      ],
      "stateMutability": "view",
      "type": "function",
      "constant": true
    },
    {
      "inputs": [],
      "name": "WAREHOUSE_SPENDING_LIMIT_PER_PERIOD",
      "outputs": [
        {
          "internalType": "uint256",
          "name": "",
          "type": "uint256"
        }
      ],
      "stateMutability": "view",
      "type": "function",
      "constant": true
    },
    {
      "inputs": [
        {
          "internalType": "string",
          "name": "",
          "type": "string"
        }
      ],
      "name": "activeEscrows",
      "outputs": [
        {
          "internalType": "address",
          "name": "warehouseAddress",
          "type": "address"
        },
        {
          "internalType": "address",
          "name": "supplierAddress",
          "type": "address"
        },
        {
          "internalType": "uint256",
          "name": "amount",
          "type": "uint256"
        },
        {
          "internalType": "bool",
          "name": "active",
          "type": "bool"
        }
      ],
      "stateMutability": "view",
      "type": "function",
      "constant": true
    },
    {
      "inputs": [],
      "name": "customerOrderManagementAddress",
      "outputs": [
        {
          "internalType": "address",
          "name": "",
          "type": "address"
        }
      ],
      "stateMutability": "view",
      "type": "function",
      "constant": true
    },
    {
      "inputs": [],
      "name": "financeDirector",
      "outputs": [
        {
          "internalType": "address",
          "name": "",
          "type": "address"
        }
      ],
      "stateMutability": "view",
      "type": "function",
      "constant": true
    },
    {
      "inputs": [],
      "name": "itemsManagement",
      "outputs": [
        {
          "internalType": "contract IItemsManagementMinimal",
          "name": "",
          "type": "address"
        }
      ],
      "stateMutability": "view",
      "type": "function",
      "constant": true
    },
    {
      "inputs": [],
      "name": "owner",
      "outputs": [
        {
          "internalType": "address",
          "name": "",
          "type": "address"
        }
      ],
      "stateMutability": "view",
      "type": "function",
      "constant": true
    },
    {
      "inputs": [],
      "name": "renounceOwnership",
      "outputs": [],
      "stateMutability": "nonpayable",
      "type": "function"
    },
    {
      "inputs": [],
      "name": "roleManagement",
      "outputs": [
        {
          "internalType": "contract IRoleManagementMinimal",
          "name": "",
          "type": "address"
        }
      ],
      "stateMutability": "view",
      "type": "function",
      "constant": true
    },
    {
      "inputs": [],
      "name": "roleManagementFullAddress",
      "outputs": [
        {
          "internalType": "address",
          "name": "",
          "type": "address"
        }
      ],
      "stateMutability": "view",
      "type": "function",
      "constant": true
    },
    {
      "inputs": [
        {
          "internalType": "address",
          "name": "newOwner",
          "type": "address"
        }
      ],
      "name": "transferOwnership",
      "outputs": [],
      "stateMutability": "nonpayable",
      "type": "function"
    },
    {
      "inputs": [
        {
          "internalType": "address",
          "name": "",
          "type": "address"
        },
        {
          "internalType": "address",
          "name": "",
          "type": "address"
        }
      ],
      "name": "warehouseSpendingPolicies",
      "outputs": [
        {
          "internalType": "uint256",
          "name": "",
          "type": "uint256"
        }
      ],
      "stateMutability": "view",
      "type": "function",
      "constant": true
    },
    {
      "inputs": [
        {
          "internalType": "address",
          "name": "",
          "type": "address"
        }
      ],
      "name": "warehouseSpendingThisPeriod",
      "outputs": [
        {
          "internalType": "uint256",
          "name": "",
          "type": "uint256"
        }
      ],
      "stateMutability": "view",
      "type": "function",
      "constant": true
    },
    {
      "inputs": [],
      "name": "warehouseSupplierOrderManagement",
      "outputs": [
        {
          "internalType": "address",
          "name": "",
          "type": "address"
        }
      ],
      "stateMutability": "view",
      "type": "function",
      "constant": true
    },
    {
      "stateMutability": "payable",
      "type": "receive",
      "payable": true
    },
    {
      "inputs": [
        {
          "internalType": "address",
          "name": "_wsomAddress",
          "type": "address"
        }
      ],
      "name": "setWarehouseSupplierOrderManagementAddress",
      "outputs": [],
      "stateMutability": "nonpayable",
      "type": "function"
    },
    {
      "inputs": [
        {
          "internalType": "address",
          "name": "_comAddress",
          "type": "address"
        }
      ],
      "name": "setCustomerOrderManagementAddress",
      "outputs": [],
      "stateMutability": "nonpayable",
      "type": "function"
    },
    {
      "inputs": [
        {
          "internalType": "address",
          "name": "_director",
          "type": "address"
        }
      ],
      "name": "setInitialFinanceDirector",
      "outputs": [],
      "stateMutability": "nonpayable",
      "type": "function"
    },
    {
      "inputs": [
        {
          "internalType": "address",
          "name": "_roleHolderAddress",
          "type": "address"
        },
        {
          "internalType": "bytes32",
          "name": "_roleKey",
          "type": "bytes32"
        }
      ],
      "name": "transferToInternalRole",
      "outputs": [],
      "stateMutability": "nonpayable",
      "type": "function"
    },
    {
      "inputs": [
        {
          "internalType": "address",
          "name": "_warehouseAddress",
          "type": "address"
        },
        {
          "internalType": "address",
          "name": "_supplierAddress",
          "type": "address"
        },
        {
          "internalType": "uint256",
          "name": "_maxAmountPerOrder",
          "type": "uint256"
        }
      ],
      "name": "setWarehouseSpendingPolicy",
      "outputs": [],
      "stateMutability": "nonpayable",
      "type": "function"
    },
    {
      "inputs": [
        {
          "internalType": "address payable",
          "name": "_recipient",
          "type": "address"
        },
        {
          "internalType": "uint256",
          "name": "_amount",
          "type": "uint256"
        },
        {
          "internalType": "string",
          "name": "_reason",
          "type": "string"
        }
      ],
      "name": "generalWithdrawal",
      "outputs": [],
      "stateMutability": "nonpayable",
      "type": "function"
    },
    {
      "inputs": [
        {
          "internalType": "address",
          "name": "_newDirector",
          "type": "address"
        }
      ],
      "name": "changeFinanceDirector",
      "outputs": [],
      "stateMutability": "nonpayable",
      "type": "function"
    },
    {
      "inputs": [
        {
          "internalType": "address",
          "name": "_warehouseAddress",
          "type": "address"
        },
        {
          "internalType": "address",
          "name": "_supplierAddress",
          "type": "address"
        },
        {
          "internalType": "string",
          "name": "_internalSupplierOrderId",
          "type": "string"
        },
        {
          "internalType": "uint256",
          "name": "_amount",
          "type": "uint256"
        }
      ],
      "name": "requestEscrowForSupplierOrder",
      "outputs": [
        {
          "internalType": "bool",
          "name": "",
          "type": "bool"
        }
      ],
      "stateMutability": "nonpayable",
      "type": "function"
    },
    {
      "inputs": [
        {
          "internalType": "address",
          "name": "_supplierAddressToVerify",
          "type": "address"
        },
        {
          "internalType": "string",
          "name": "_internalSupplierOrderId",
          "type": "string"
        },
        {
          "internalType": "uint256",
          "name": "_amountToVerify",
          "type": "uint256"
        }
      ],
      "name": "releaseEscrowToSupplier",
      "outputs": [
        {
          "internalType": "bool",
          "name": "",
          "type": "bool"
        }
      ],
      "stateMutability": "nonpayable",
      "type": "function"
    },
    {
      "inputs": [
        {
          "internalType": "address",
          "name": "_warehouseAddressToVerify",
          "type": "address"
        },
        {
          "internalType": "string",
          "name": "_internalSupplierOrderId",
          "type": "string"
        },
        {
          "internalType": "uint256",
          "name": "_amountToVerify",
          "type": "uint256"
        }
      ],
      "name": "refundEscrowToTreasury",
      "outputs": [
        {
          "internalType": "bool",
          "name": "",
          "type": "bool"
        }
      ],
      "stateMutability": "nonpayable",
      "type": "function"
    },
    {
      "inputs": [
        {
          "internalType": "uint256",
          "name": "_orderId",
          "type": "uint256"
        },
        {
          "internalType": "address payable",
          "name": "_customerAddress",
          "type": "address"
        },
        {
          "internalType": "uint256",
          "name": "_amountToRefund",
          "type": "uint256"
        }
      ],
      "name": "refundCustomerOrderFromTreasury",
      "outputs": [],
      "stateMutability": "nonpayable",
      "type": "function"
    },
    {
      "inputs": [],
      "name": "receiveBoardMemberContribution",
      "outputs": [],
      "stateMutability": "payable",
      "type": "function",
      "payable": true
    },
    {
      "inputs": [],
      "name": "getBalance",
      "outputs": [
        {
          "internalType": "uint256",
          "name": "",
          "type": "uint256"
        }
      ],
      "stateMutability": "view",
      "type": "function",
      "constant": true
    },
    {
      "inputs": [
        {
          "internalType": "address",
          "name": "_warehouseAddress",
          "type": "address"
        },
        {
          "internalType": "address",
          "name": "_supplierAddress",
          "type": "address"
        }
      ],
      "name": "getWarehouseSpendingPolicy",
      "outputs": [
        {
          "internalType": "uint256",
          "name": "",
          "type": "uint256"
        }
      ],
      "stateMutability": "view",
      "type": "function",
      "constant": true
    },
    {
      "inputs": [
        {
          "internalType": "address",
          "name": "_warehouseAddress",
          "type": "address"
        }
      ],
      "name": "getWarehouseSpendingThisPeriod",
      "outputs": [
        {
          "internalType": "uint256",
          "name": "",
          "type": "uint256"
        }
      ],
      "stateMutability": "view",
      "type": "function",
      "constant": true
    },
    {
      "inputs": [
        {
          "internalType": "string",
          "name": "_internalSupplierOrderId",
          "type": "string"
        }
      ],
      "name": "getEscrowDetails",
      "outputs": [
        {
          "components": [
            {
              "internalType": "address",
              "name": "warehouseAddress",
              "type": "address"
            },
            {
              "internalType": "address",
              "name": "supplierAddress",
              "type": "address"
            },
            {
              "internalType": "uint256",
              "name": "amount",
              "type": "uint256"
            },
            {
              "internalType": "bool",
              "name": "active",
              "type": "bool"
            }
          ],
          "internalType": "struct CompanyTreasuryManager.EscrowDetails",
          "name": "",
          "type": "tuple"
        }
      ],
      "stateMutability": "view",
      "type": "function",
      "constant": true
    },
    {
      "inputs": [],
      "name": "WAREHOUSE_SPENDING_LIMIT_PER_PERIOD_CONST",
      "outputs": [
        {
          "internalType": "uint256",
          "name": "",
          "type": "uint256"
        }
      ],
      "stateMutability": "pure",
      "type": "function",
      "constant": true
    },
    {
      "inputs": [],
      "name": "INTERNAL_ROLE_TOP_UP_THRESHOLD_CONST",
      "outputs": [
        {
          "internalType": "uint256",
          "name": "",
          "type": "uint256"
        }
      ],
      "stateMutability": "pure",
      "type": "function",
      "constant": true
    },
    {
      "inputs": [],
      "name": "INTERNAL_ROLE_TOP_UP_AMOUNT_CONST",
      "outputs": [
        {
          "internalType": "uint256",
          "name": "",
          "type": "uint256"
        }
      ],
      "stateMutability": "pure",
      "type": "function",
      "constant": true
    }
  ],
  "bytecode": "0x60c0604052604051620064dd380380620064dd833981810160405281019062000029919062000404565b620000496200003d6200030a60201b60201c565b6200031260201b60201c565b60018081905550600073ffffffffffffffffffffffffffffffffffffffff168373ffffffffffffffffffffffffffffffffffffffff161415620000c3576040517f08c379a0000000000000000000000000000000000000000000000000000000008152600401620000ba9062000695565b60405180910390fd5b600073ffffffffffffffffffffffffffffffffffffffff168273ffffffffffffffffffffffffffffffffffffffff16141562000136576040517f08c379a00000000000000000000000000000000000000000000000000000000081526004016200012d90620006fb565b60405180910390fd5b60008110156200017d576040517f08c379a0000000000000000000000000000000000000000000000000000000008152600401620001749062000673565b60405180910390fd5b8273ffffffffffffffffffffffffffffffffffffffff1660808173ffffffffffffffffffffffffffffffffffffffff1660601b815250508173ffffffffffffffffffffffffffffffffffffffff1660a08173ffffffffffffffffffffffffffffffffffffffff1660601b8152505082600260006101000a81548173ffffffffffffffffffffffffffffffffffffffff021916908373ffffffffffffffffffffffffffffffffffffffff1602179055506000811115620002ba578034146200027b576040517f08c379a00000000000000000000000000000000000000000000000000000000081526004016200027290620006d9565b60405180910390fd5b7f5a8d86dba9b5978a0cdf6ec0ed77250aa7a80cc0d35f20ff655f42a6c583d4e534604051620002ac91906200071d565b60405180910390a162000301565b6000341462000300576040517f08c379a0000000000000000000000000000000000000000000000000000000008152600401620002f790620006b7565b60405180910390fd5b5b505050620007bd565b600033905090565b60008060009054906101000a900473ffffffffffffffffffffffffffffffffffffffff169050816000806101000a81548173ffffffffffffffffffffffffffffffffffffffff021916908373ffffffffffffffffffffffffffffffffffffffff1602179055508173ffffffffffffffffffffffffffffffffffffffff168173ffffffffffffffffffffffffffffffffffffffff167f8be0079c531659141344cd1fd0a4f28419497f9722a3daafe3b4186f6b6457e060405160405180910390a35050565b600081519050620003e78162000789565b92915050565b600081519050620003fe81620007a3565b92915050565b6000806000606084860312156200041a57600080fd5b60006200042a86828701620003d6565b93505060206200043d86828701620003d6565b92505060406200045086828701620003ed565b9150509250925092565b6000620004696025836200073a565b91507f43544d3a20566f6e2062616e20646175206475206b69656e206b686f6e67207460008301527f686520616d0000000000000000000000000000000000000000000000000000006020830152604082019050919050565b6000620004d16028836200073a565b91507f43544d3a204469612063686920526f6c654d616e6167656d656e74206b686f6e60008301527f6720686f70206c650000000000000000000000000000000000000000000000006020830152604082019050919050565b6000620005396035836200073a565b91507f43544d3a204b686f6e67206e656e20677569204574686572206e657520766f6e60008301527f2062616e20646175206475206b69656e206c61203000000000000000000000006020830152604082019050919050565b6000620005a16027836200073a565b91507f43544d3a20536f20766f6e2062616e2064617520677569206b686f6e6720636860008301527f696e6820786163000000000000000000000000000000000000000000000000006020830152604082019050919050565b6000620006096029836200073a565b91507f43544d3a2044696120636869204974656d734d616e6167656d656e74206b686f60008301527f6e6720686f70206c6500000000000000000000000000000000000000000000006020830152604082019050919050565b6200066d816200077f565b82525050565b600060208201905081810360008301526200068e816200045a565b9050919050565b60006020820190508181036000830152620006b081620004c2565b9050919050565b60006020820190508181036000830152620006d2816200052a565b9050919050565b60006020820190508181036000830152620006f48162000592565b9050919050565b600060208201905081810360008301526200071681620005fa565b9050919050565b600060208201905062000734600083018462000662565b92915050565b600082825260208201905092915050565b600062000758826200075f565b9050919050565b600073ffffffffffffffffffffffffffffffffffffffff82169050919050565b6000819050919050565b62000794816200074b565b8114620007a057600080fd5b50565b620007ae816200077f565b8114620007ba57600080fd5b50565b60805160601c60a05160601c615cbc6200082160003960008181611cfa01528181611df00152612665015260008181610e3801528181610ed8015281816116e20152818161178201528181612641015281816127af015261289b0152615cbc6000f3fe6080604052600436106101fd5760003560e01c80638b77b9a91161010d578063c19aacdd116100a0578063daf45d4e1161006f578063daf45d4e14610781578063dc906182146107be578063ef1ac8a9146107fb578063f2fde38b14610838578063f9510d641461086157610252565b8063c19aacdd146106d7578063cffe4f3714610702578063d505ea1f1461072d578063d5a122381461075857610252565b8063a22b0f84116100dc578063a22b0f841461061b578063aa9ce11f14610644578063b0cc67e414610681578063b977ba18146106ac57610252565b80638b77b9a91461054a5780638da5cb5b146105875780638deecc20146105b25780639e70350f146105f257610252565b8063626f94d61161019057806371ff198a1161015f57806371ff198a1461044f57806376d22d7e1461047a5780637d75cddc146104a55780637dc161c3146104d0578063895621e11461050d57610252565b8063626f94d6146103bb5780636718b05b146103e45780636a15d2a21461040f578063715018a61461043857610252565b80634eddf360116101cc5780634eddf360146102fd57806351aeb577146103285780635b5a0859146103655780636191718c1461039057610252565b806301a2a94e1461025757806311197b3e1461028057806312065fe0146102a95780631c181773146102d457610252565b36610252573373ffffffffffffffffffffffffffffffffffffffff167f543ba50a5eec5e6178218e364b1d0f396157b3c8fa278522c2cb7fd99407d474346040516102489190615957565b60405180910390a2005b600080fd5b34801561026357600080fd5b5061027e60048036038101906102799190613930565b61086b565b005b34801561028c57600080fd5b506102a760048036038101906102a29190613cd2565b610b1d565b005b3480156102b557600080fd5b506102be610db4565b6040516102cb9190615957565b60405180910390f35b3480156102e057600080fd5b506102fb60048036038101906102f69190613907565b610dbc565b005b34801561030957600080fd5b506103126110d9565b60405161031f9190615187565b60405180910390f35b34801561033457600080fd5b5061034f600480360381019061034a9190613ae3565b6110ff565b60405161035c9190615210565b60405180910390f35b34801561037157600080fd5b5061037a61150b565b6040516103879190615187565b60405180910390f35b34801561039c57600080fd5b506103a5611531565b6040516103b29190615957565b60405180910390f35b3480156103c757600080fd5b506103e260048036038101906103dd9190613907565b611541565b005b3480156103f057600080fd5b506103f9611640565b6040516104069190615187565b60405180910390f35b34801561041b57600080fd5b5061043660048036038101906104319190613907565b611666565b005b34801561044457600080fd5b5061044d6118f2565b005b34801561045b57600080fd5b50610464611906565b6040516104719190615957565b60405180910390f35b34801561048657600080fd5b5061048f611913565b60405161049c9190615957565b60405180910390f35b3480156104b157600080fd5b506104ba61191f565b6040516104c79190615187565b60405180910390f35b3480156104dc57600080fd5b506104f760048036038101906104f2919061399c565b611945565b6040516105049190615957565b60405180910390f35b34801561051957600080fd5b50610534600480360381019061052f9190613907565b61196a565b6040516105419190615957565b60405180910390f35b34801561055657600080fd5b50610571600480360381019061056c9190613907565b611982565b60405161057e9190615957565b60405180910390f35b34801561059357600080fd5b5061059c6119cb565b6040516105a99190615187565b60405180910390f35b3480156105be57600080fd5b506105d960048036038101906105d49190613be6565b6119f4565b6040516105e994939291906151a2565b60405180910390f35b3480156105fe57600080fd5b5061061960048036038101906106149190613907565b611a87565b005b34801561062757600080fd5b50610642600480360381019061063d9190613a58565b611b86565b005b34801561065057600080fd5b5061066b600480360381019061066691906139d8565b611fe6565b6040516106789190615210565b60405180910390f35b34801561068d57600080fd5b5061069661262e565b6040516106a39190615957565b60405180910390f35b3480156106b857600080fd5b506106c161263f565b6040516106ce919061526f565b60405180910390f35b3480156106e357600080fd5b506106ec612663565b6040516106f99190615254565b60405180910390f35b34801561070e57600080fd5b50610717612687565b6040516107249190615957565b60405180910390f35b34801561073957600080fd5b50610742612694565b60405161074f9190615957565b60405180910390f35b34801561076457600080fd5b5061077f600480360381019061077a9190613aa7565b6126a5565b005b34801561078d57600080fd5b506107a860048036038101906107a39190613ae3565b612b54565b6040516107b59190615210565b60405180910390f35b3480156107ca57600080fd5b506107e560048036038101906107e09190613ba1565b612f1b565b6040516107f2919061593c565b60405180910390f35b34801561080757600080fd5b50610822600480360381019061081d919061399c565b613027565b60405161082f9190615957565b60405180910390f35b34801561084457600080fd5b5061085f600480360381019061085a9190613907565b6130ae565b005b610869613132565b005b600560009054906101000a900473ffffffffffffffffffffffffffffffffffffffff1673ffffffffffffffffffffffffffffffffffffffff163373ffffffffffffffffffffffffffffffffffffffff16146108fb576040517f08c379a00000000000000000000000000000000000000000000000000000000081526004016108f29061533c565b60405180910390fd5b6109036133f4565b600073ffffffffffffffffffffffffffffffffffffffff168473ffffffffffffffffffffffffffffffffffffffff161415610973576040517f08c379a000000000000000000000000000000000000000000000000000000000815260040161096a9061561c565b60405180910390fd5b600083116109b6576040517f08c379a00000000000000000000000000000000000000000000000000000000081526004016109ad9061553c565b60405180910390fd5b824710156109f9576040517f08c379a00000000000000000000000000000000000000000000000000000000081526004016109f09061551c565b60405180910390fd5b60008473ffffffffffffffffffffffffffffffffffffffff1684604051610a1f90615172565b60006040518083038185875af1925050503d8060008114610a5c576040519150601f19603f3d011682016040523d82523d6000602084013e610a61565b606091505b5050905080610aa5576040517f08c379a0000000000000000000000000000000000000000000000000000000008152600401610a9c9061531c565b60405180910390fd5b8473ffffffffffffffffffffffffffffffffffffffff163373ffffffffffffffffffffffffffffffffffffffff167f551cda44af45f8ecc2ee4fc9d36201c3e1269e76d0a188c66adcc131b7b1ec60868686604051610b0693929190615972565b60405180910390a350610b17613444565b50505050565b610b256133f4565b600460009054906101000a900473ffffffffffffffffffffffffffffffffffffffff1673ffffffffffffffffffffffffffffffffffffffff163373ffffffffffffffffffffffffffffffffffffffff1614610bb5576040517f08c379a0000000000000000000000000000000000000000000000000000000008152600401610bac9061571c565b60405180910390fd5b600073ffffffffffffffffffffffffffffffffffffffff168273ffffffffffffffffffffffffffffffffffffffff161415610c25576040517f08c379a0000000000000000000000000000000000000000000000000000000008152600401610c1c906153bc565b60405180910390fd5b60008111610c68576040517f08c379a0000000000000000000000000000000000000000000000000000000008152600401610c5f906156fc565b60405180910390fd5b80471015610cab576040517f08c379a0000000000000000000000000000000000000000000000000000000008152600401610ca2906152bc565b60405180910390fd5b60008273ffffffffffffffffffffffffffffffffffffffff1682604051610cd190615172565b60006040518083038185875af1925050503d8060008114610d0e576040519150601f19603f3d011682016040523d82523d6000602084013e610d13565b606091505b5050905080610d57576040517f08c379a0000000000000000000000000000000000000000000000000000000008152600401610d4e906157fc565b60405180910390fd5b8273ffffffffffffffffffffffffffffffffffffffff16847fc12d6ca8c39120133bdb248b7f11862fe29cf43ea3c09abd5fb7594d59da35da84604051610d9e9190615957565b60405180910390a350610daf613444565b505050565b600047905090565b610dc461344d565b600073ffffffffffffffffffffffffffffffffffffffff168173ffffffffffffffffffffffffffffffffffffffff161415610e34576040517f08c379a0000000000000000000000000000000000000000000000000000000008152600401610e2b9061555c565b60405180910390fd5b60007f000000000000000000000000000000000000000000000000000000000000000073ffffffffffffffffffffffffffffffffffffffff16638b94a8e26040518163ffffffff1660e01b815260040160206040518083038186803b158015610e9c57600080fd5b505afa158015610eb0573d6000803e3d6000fd5b505050506040513d601f19601f82011682018060405250810190610ed49190613b78565b90507f000000000000000000000000000000000000000000000000000000000000000073ffffffffffffffffffffffffffffffffffffffff166391d1485482846040518363ffffffff1660e01b8152600401610f3192919061522b565b60206040518083038186803b158015610f4957600080fd5b505afa158015610f5d573d6000803e3d6000fd5b505050506040513d601f19601f82011682018060405250810190610f819190613b4f565b610fc0576040517f08c379a0000000000000000000000000000000000000000000000000000000008152600401610fb79061535c565b60405180910390fd5b600560009054906101000a900473ffffffffffffffffffffffffffffffffffffffff1673ffffffffffffffffffffffffffffffffffffffff168273ffffffffffffffffffffffffffffffffffffffff161415611051576040517f08c379a00000000000000000000000000000000000000000000000000000000081526004016110489061591c565b60405180910390fd5b81600560006101000a81548173ffffffffffffffffffffffffffffffffffffffff021916908373ffffffffffffffffffffffffffffffffffffffff1602179055508173ffffffffffffffffffffffffffffffffffffffff167fefdd118ca7d5b7a6f2ba4688dbbfc422f9e0a98948ef0a0b17da8b1d3200a76d60405160405180910390a25050565b600560009054906101000a900473ffffffffffffffffffffffffffffffffffffffff1681565b60006111096133f4565b600360009054906101000a900473ffffffffffffffffffffffffffffffffffffffff1673ffffffffffffffffffffffffffffffffffffffff163373ffffffffffffffffffffffffffffffffffffffff1614611199576040517f08c379a00000000000000000000000000000000000000000000000000000000081526004016111909061541c565b60405180910390fd5b600073ffffffffffffffffffffffffffffffffffffffff168573ffffffffffffffffffffffffffffffffffffffff161415611209576040517f08c379a00000000000000000000000000000000000000000000000000000000081526004016112009061537c565b60405180910390fd5b6000848490501161124f576040517f08c379a00000000000000000000000000000000000000000000000000000000081526004016112469061559c565b60405180910390fd5b600060088585604051611263929190615159565b908152602001604051809103902090508060030160009054906101000a900460ff166112c4576040517f08c379a00000000000000000000000000000000000000000000000000000000081526004016112bb9061577c565b60405180910390fd5b8573ffffffffffffffffffffffffffffffffffffffff168160010160009054906101000a900473ffffffffffffffffffffffffffffffffffffffff1673ffffffffffffffffffffffffffffffffffffffff1614611356576040517f08c379a000000000000000000000000000000000000000000000000000000000815260040161134d906153dc565b60405180910390fd5b8281600201541461139c576040517f08c379a00000000000000000000000000000000000000000000000000000000081526004016113939061585c565b60405180910390fd5b60008160030160006101000a81548160ff02191690831515021790555060008160010160009054906101000a900473ffffffffffffffffffffffffffffffffffffffff1673ffffffffffffffffffffffffffffffffffffffff16826002015460405161140790615172565b60006040518083038185875af1925050503d8060008114611444576040519150601f19603f3d011682016040523d82523d6000602084013e611449565b606091505b505090508061147a5760018260030160006101000a81548160ff0219169083151502179055506000925050506114fb565b8160010160009054906101000a900473ffffffffffffffffffffffffffffffffffffffff1673ffffffffffffffffffffffffffffffffffffffff167f887f535c60243445802f8a07b39ad62c28b084f008cc72080bc9776a6bdec585878785600201546040516114ec9392919061528a565b60405180910390a26001925050505b611503613444565b949350505050565b600360009054906101000a900473ffffffffffffffffffffffffffffffffffffffff1681565b6000674563918244f40000905090565b61154961344d565b600073ffffffffffffffffffffffffffffffffffffffff168173ffffffffffffffffffffffffffffffffffffffff1614156115b9576040517f08c379a00000000000000000000000000000000000000000000000000000000081526004016115b09061573c565b60405180910390fd5b80600460006101000a81548173ffffffffffffffffffffffffffffffffffffffff021916908373ffffffffffffffffffffffffffffffffffffffff1602179055508073ffffffffffffffffffffffffffffffffffffffff167ff60a7d245ccf77dd2036da1a1ad14a8c5dba1a9ccc98b56d0ad004b140c9472360405160405180910390a250565b600460009054906101000a900473ffffffffffffffffffffffffffffffffffffffff1681565b61166e61344d565b600073ffffffffffffffffffffffffffffffffffffffff168173ffffffffffffffffffffffffffffffffffffffff1614156116de576040517f08c379a00000000000000000000000000000000000000000000000000000000081526004016116d5906155fc565b60405180910390fd5b60007f000000000000000000000000000000000000000000000000000000000000000073ffffffffffffffffffffffffffffffffffffffff16638b94a8e26040518163ffffffff1660e01b815260040160206040518083038186803b15801561174657600080fd5b505afa15801561175a573d6000803e3d6000fd5b505050506040513d601f19601f8201168201806040525081019061177e9190613b78565b90507f000000000000000000000000000000000000000000000000000000000000000073ffffffffffffffffffffffffffffffffffffffff166391d1485482846040518363ffffffff1660e01b81526004016117db92919061522b565b60206040518083038186803b1580156117f357600080fd5b505afa158015611807573d6000803e3d6000fd5b505050506040513d601f19601f8201168201806040525081019061182b9190613b4f565b61186a576040517f08c379a0000000000000000000000000000000000000000000000000000000008152600401611861906154bc565b60405180910390fd5b81600560006101000a81548173ffffffffffffffffffffffffffffffffffffffff021916908373ffffffffffffffffffffffffffffffffffffffff1602179055508173ffffffffffffffffffffffffffffffffffffffff167fefdd118ca7d5b7a6f2ba4688dbbfc422f9e0a98948ef0a0b17da8b1d3200a76d60405160405180910390a25050565b6118fa61344d565b61190460006134cb565b565b6801158e460913d0000081565b674563918244f4000081565b600260009054906101000a900473ffffffffffffffffffffffffffffffffffffffff1681565b6006602052816000526040600020602052806000526040600020600091509150505481565b60076020528060005260406000206000915090505481565b6000600760008373ffffffffffffffffffffffffffffffffffffffff1673ffffffffffffffffffffffffffffffffffffffff168152602001908152602001600020549050919050565b60008060009054906101000a900473ffffffffffffffffffffffffffffffffffffffff16905090565b6008818051602081018201805184825260208301602085012081835280955050505050506000915090508060000160009054906101000a900473ffffffffffffffffffffffffffffffffffffffff16908060010160009054906101000a900473ffffffffffffffffffffffffffffffffffffffff16908060020154908060030160009054906101000a900460ff16905084565b611a8f61344d565b600073ffffffffffffffffffffffffffffffffffffffff168173ffffffffffffffffffffffffffffffffffffffff161415611aff576040517f08c379a0000000000000000000000000000000000000000000000000000000008152600401611af69061589c565b60405180910390fd5b80600360006101000a81548173ffffffffffffffffffffffffffffffffffffffff021916908373ffffffffffffffffffffffffffffffffffffffff1602179055508073ffffffffffffffffffffffffffffffffffffffff167fcb36ba9fb6b00797b047f7ee0bd8a7a2e9035de6fdcb2cd93c50aaa91d2c1bbc60405160405180910390a250565b600560009054906101000a900473ffffffffffffffffffffffffffffffffffffffff1673ffffffffffffffffffffffffffffffffffffffff163373ffffffffffffffffffffffffffffffffffffffff1614611c16576040517f08c379a0000000000000000000000000000000000000000000000000000000008152600401611c0d9061533c565b60405180910390fd5b600073ffffffffffffffffffffffffffffffffffffffff168373ffffffffffffffffffffffffffffffffffffffff161415611c86576040517f08c379a0000000000000000000000000000000000000000000000000000000008152600401611c7d906152dc565b60405180910390fd5b600073ffffffffffffffffffffffffffffffffffffffff168273ffffffffffffffffffffffffffffffffffffffff161415611cf6576040517f08c379a0000000000000000000000000000000000000000000000000000000008152600401611ced906153fc565b60405180910390fd5b60007f000000000000000000000000000000000000000000000000000000000000000073ffffffffffffffffffffffffffffffffffffffff16637160572b856040518263ffffffff1660e01b8152600401611d519190615187565b60006040518083038186803b158015611d6957600080fd5b505afa158015611d7d573d6000803e3d6000fd5b505050506040513d6000823e3d601f19601f82011682018060405250810190611da69190613c27565b90508060800151611dec576040517f08c379a0000000000000000000000000000000000000000000000000000000008152600401611de3906158bc565b60405180910390fd5b60007f000000000000000000000000000000000000000000000000000000000000000073ffffffffffffffffffffffffffffffffffffffff166359435f04856040518263ffffffff1660e01b8152600401611e479190615187565b60006040518083038186803b158015611e5f57600080fd5b505afa158015611e73573d6000803e3d6000fd5b505050506040513d6000823e3d601f19601f82011682018060405250810190611e9c9190613c68565b90508060600151611ee2576040517f08c379a0000000000000000000000000000000000000000000000000000000008152600401611ed99061557c565b60405180910390fd5b82600660008773ffffffffffffffffffffffffffffffffffffffff1673ffffffffffffffffffffffffffffffffffffffff16815260200190815260200160002060008673ffffffffffffffffffffffffffffffffffffffff1673ffffffffffffffffffffffffffffffffffffffff168152602001908152602001600020819055508373ffffffffffffffffffffffffffffffffffffffff168573ffffffffffffffffffffffffffffffffffffffff163373ffffffffffffffffffffffffffffffffffffffff167ffcbafc2c7d8791bb6ad7ee03317625c081371655d277ef5abf133add155be5f186604051611fd79190615957565b60405180910390a45050505050565b6000611ff06133f4565b600360009054906101000a900473ffffffffffffffffffffffffffffffffffffffff1673ffffffffffffffffffffffffffffffffffffffff163373ffffffffffffffffffffffffffffffffffffffff1614612080576040517f08c379a00000000000000000000000000000000000000000000000000000000081526004016120779061541c565b60405180910390fd5b600073ffffffffffffffffffffffffffffffffffffffff168673ffffffffffffffffffffffffffffffffffffffff1614156120f0576040517f08c379a00000000000000000000000000000000000000000000000000000000081526004016120e7906158dc565b60405180910390fd5b600073ffffffffffffffffffffffffffffffffffffffff168573ffffffffffffffffffffffffffffffffffffffff161415612160576040517f08c379a00000000000000000000000000000000000000000000000000000000081526004016121579061565c565b60405180910390fd5b600084849050116121a6576040517f08c379a000000000000000000000000000000000000000000000000000000000815260040161219d906157dc565b60405180910390fd5b600082116121e9576040517f08c379a00000000000000000000000000000000000000000000000000000000081526004016121e09061539c565b60405180910390fd5b600884846040516121fb929190615159565b908152602001604051809103902060030160009054906101000a900460ff161561225a576040517f08c379a0000000000000000000000000000000000000000000000000000000008152600401612251906155dc565b60405180910390fd5b6000600660008873ffffffffffffffffffffffffffffffffffffffff1673ffffffffffffffffffffffffffffffffffffffff16815260200190815260200160002060008773ffffffffffffffffffffffffffffffffffffffff1673ffffffffffffffffffffffffffffffffffffffff1681526020019081526020016000205490506000811161231e576040517f08c379a0000000000000000000000000000000000000000000000000000000008152600401612315906154fc565b60405180910390fd5b80831115612361576040517f08c379a0000000000000000000000000000000000000000000000000000000008152600401612358906152fc565b60405180910390fd5b600083600760008a73ffffffffffffffffffffffffffffffffffffffff1673ffffffffffffffffffffffffffffffffffffffff168152602001908152602001600020546123ae9190615a2c565b905068056bc75e2d631000008111156123fc576040517f08c379a00000000000000000000000000000000000000000000000000000000081526004016123f3906156bc565b60405180910390fd5b8347101561243f576040517f08c379a0000000000000000000000000000000000000000000000000000000008152600401612436906154dc565b60405180910390fd5b60405180608001604052808973ffffffffffffffffffffffffffffffffffffffff1681526020018873ffffffffffffffffffffffffffffffffffffffff16815260200185815260200160011515815250600887876040516124a1929190615159565b908152602001604051809103902060008201518160000160006101000a81548173ffffffffffffffffffffffffffffffffffffffff021916908373ffffffffffffffffffffffffffffffffffffffff16021790555060208201518160010160006101000a81548173ffffffffffffffffffffffffffffffffffffffff021916908373ffffffffffffffffffffffffffffffffffffffff1602179055506040820151816002015560608201518160030160006101000a81548160ff02191690831515021790555090505080600760008a73ffffffffffffffffffffffffffffffffffffffff1673ffffffffffffffffffffffffffffffffffffffff168152602001908152602001600020819055508673ffffffffffffffffffffffffffffffffffffffff168873ffffffffffffffffffffffffffffffffffffffff167f8832efea4e13c2ed683f9c0908aba7265d18c42517933ebeea3b4d9092f3655b88888860405161260f9392919061528a565b60405180910390a3600192505050612625613444565b95945050505050565b60006801158e460913d00000905090565b7f000000000000000000000000000000000000000000000000000000000000000081565b7f000000000000000000000000000000000000000000000000000000000000000081565b68056bc75e2d6310000081565b600068056bc75e2d63100000905090565b600560009054906101000a900473ffffffffffffffffffffffffffffffffffffffff1673ffffffffffffffffffffffffffffffffffffffff163373ffffffffffffffffffffffffffffffffffffffff1614612735576040517f08c379a000000000000000000000000000000000000000000000000000000000815260040161272c9061533c565b60405180910390fd5b61273d6133f4565b600073ffffffffffffffffffffffffffffffffffffffff168273ffffffffffffffffffffffffffffffffffffffff1614156127ad576040517f08c379a00000000000000000000000000000000000000000000000000000000081526004016127a4906157bc565b60405180910390fd5b7f000000000000000000000000000000000000000000000000000000000000000073ffffffffffffffffffffffffffffffffffffffff166391d1485482846040518363ffffffff1660e01b815260040161280892919061522b565b60206040518083038186803b15801561282057600080fd5b505afa158015612834573d6000803e3d6000fd5b505050506040513d601f19601f820116820180604052508101906128589190613b4f565b612897576040517f08c379a000000000000000000000000000000000000000000000000000000000815260040161288e9061581c565b60405180910390fd5b60007f000000000000000000000000000000000000000000000000000000000000000073ffffffffffffffffffffffffffffffffffffffff16638b94a8e26040518163ffffffff1660e01b815260040160206040518083038186803b1580156128ff57600080fd5b505afa158015612913573d6000803e3d6000fd5b505050506040513d601f19601f820116820180604052508101906129379190613b78565b90508082141561297c576040517f08c379a0000000000000000000000000000000000000000000000000000000008152600401612973906158fc565b60405180910390fd5b60008373ffffffffffffffffffffffffffffffffffffffff163190506801158e460913d0000081106129e3576040517f08c379a00000000000000000000000000000000000000000000000000000000081526004016129da9061575c565b60405180910390fd5b6000674563918244f40000905080471015612a33576040517f08c379a0000000000000000000000000000000000000000000000000000000008152600401612a2a9061551c565b60405180910390fd5b60008573ffffffffffffffffffffffffffffffffffffffff1682604051612a5990615172565b60006040518083038185875af1925050503d8060008114612a96576040519150601f19603f3d011682016040523d82523d6000602084013e612a9b565b606091505b5050905080612adf576040517f08c379a0000000000000000000000000000000000000000000000000000000008152600401612ad69061579c565b60405180910390fd5b8573ffffffffffffffffffffffffffffffffffffffff163373ffffffffffffffffffffffffffffffffffffffff167fe2080c8fc8d86c864d8dc081fadaebf2be7191086615e786f954420f13ed122a84604051612b3c9190615957565b60405180910390a350505050612b50613444565b5050565b6000612b5e6133f4565b600360009054906101000a900473ffffffffffffffffffffffffffffffffffffffff1673ffffffffffffffffffffffffffffffffffffffff163373ffffffffffffffffffffffffffffffffffffffff1614612bee576040517f08c379a0000000000000000000000000000000000000000000000000000000008152600401612be59061541c565b60405180910390fd5b600073ffffffffffffffffffffffffffffffffffffffff168573ffffffffffffffffffffffffffffffffffffffff161415612c5e576040517f08c379a0000000000000000000000000000000000000000000000000000000008152600401612c559061543c565b60405180910390fd5b60008484905011612ca4576040517f08c379a0000000000000000000000000000000000000000000000000000000008152600401612c9b9061547c565b60405180910390fd5b600060088585604051612cb8929190615159565b908152602001604051809103902090508060030160009054906101000a900460ff16612d19576040517f08c379a0000000000000000000000000000000000000000000000000000000008152600401612d109061563c565b60405180910390fd5b8573ffffffffffffffffffffffffffffffffffffffff168160000160009054906101000a900473ffffffffffffffffffffffffffffffffffffffff1673ffffffffffffffffffffffffffffffffffffffff1614612dab576040517f08c379a0000000000000000000000000000000000000000000000000000000008152600401612da29061583c565b60405180910390fd5b82816002015414612df1576040517f08c379a0000000000000000000000000000000000000000000000000000000008152600401612de89061549c565b60405180910390fd5b60008160030160006101000a81548160ff0219169083151502179055508060020154600760008360000160009054906101000a900473ffffffffffffffffffffffffffffffffffffffff1673ffffffffffffffffffffffffffffffffffffffff1673ffffffffffffffffffffffffffffffffffffffff1681526020019081526020016000206000828254612e859190615a82565b925050819055508060000160009054906101000a900473ffffffffffffffffffffffffffffffffffffffff1673ffffffffffffffffffffffffffffffffffffffff167f1065ba1a5e4d9d087a309d86a9ce14c67c7dbef9aa278a382c31e408d826cbdd86868460020154604051612efe9392919061528a565b60405180910390a26001915050612f13613444565b949350505050565b612f23613597565b60088383604051612f35929190615159565b90815260200160405180910390206040518060800160405290816000820160009054906101000a900473ffffffffffffffffffffffffffffffffffffffff1673ffffffffffffffffffffffffffffffffffffffff1673ffffffffffffffffffffffffffffffffffffffff1681526020016001820160009054906101000a900473ffffffffffffffffffffffffffffffffffffffff1673ffffffffffffffffffffffffffffffffffffffff1673ffffffffffffffffffffffffffffffffffffffff168152602001600282015481526020016003820160009054906101000a900460ff161515151581525050905092915050565b6000600660008473ffffffffffffffffffffffffffffffffffffffff1673ffffffffffffffffffffffffffffffffffffffff16815260200190815260200160002060008373ffffffffffffffffffffffffffffffffffffffff1673ffffffffffffffffffffffffffffffffffffffff16815260200190815260200160002054905092915050565b6130b661344d565b600073ffffffffffffffffffffffffffffffffffffffff168173ffffffffffffffffffffffffffffffffffffffff161415613126576040517f08c379a000000000000000000000000000000000000000000000000000000000815260040161311d9061545c565b60405180910390fd5b61312f816134cb565b50565b61313a6133f4565b60003390506000349050600073ffffffffffffffffffffffffffffffffffffffff16600260009054906101000a900473ffffffffffffffffffffffffffffffffffffffff1673ffffffffffffffffffffffffffffffffffffffff1614156131d6576040517f08c379a00000000000000000000000000000000000000000000000000000000081526004016131cd906155bc565b60405180910390fd5b6000600260009054906101000a900473ffffffffffffffffffffffffffffffffffffffff1673ffffffffffffffffffffffffffffffffffffffff1663be9d3db3846040518263ffffffff1660e01b81526004016132339190615187565b60206040518083038186803b15801561324b57600080fd5b505afa15801561325f573d6000803e3d6000fd5b505050506040513d601f19601f820116820180604052508101906132839190613ca9565b9050600081116132c8576040517f08c379a00000000000000000000000000000000000000000000000000000000081526004016132bf9061569c565b60405180910390fd5b80821461330a576040517f08c379a00000000000000000000000000000000000000000000000000000000081526004016133019061567c565b60405180910390fd5b8273ffffffffffffffffffffffffffffffffffffffff167f5b2867009c0e15ae94a5d29f41dc792d26e95e9ab9a5ef8ebd64e7b41fd6015a836040516133509190615957565b60405180910390a2600260009054906101000a900473ffffffffffffffffffffffffffffffffffffffff1673ffffffffffffffffffffffffffffffffffffffff1663f83ea09f84846040518363ffffffff1660e01b81526004016133b59291906151e7565b600060405180830381600087803b1580156133cf57600080fd5b505af11580156133e3573d6000803e3d6000fd5b505050505050506133f2613444565b565b6002600154141561343a576040517f08c379a00000000000000000000000000000000000000000000000000000000081526004016134319061587c565b60405180910390fd5b6002600181905550565b60018081905550565b61345561358f565b73ffffffffffffffffffffffffffffffffffffffff166134736119cb565b73ffffffffffffffffffffffffffffffffffffffff16146134c9576040517f08c379a00000000000000000000000000000000000000000000000000000000081526004016134c0906156dc565b60405180910390fd5b565b60008060009054906101000a900473ffffffffffffffffffffffffffffffffffffffff169050816000806101000a81548173ffffffffffffffffffffffffffffffffffffffff021916908373ffffffffffffffffffffffffffffffffffffffff1602179055508173ffffffffffffffffffffffffffffffffffffffff168173ffffffffffffffffffffffffffffffffffffffff167f8be0079c531659141344cd1fd0a4f28419497f9722a3daafe3b4186f6b6457e060405160405180910390a35050565b600033905090565b6040518060800160405280600073ffffffffffffffffffffffffffffffffffffffff168152602001600073ffffffffffffffffffffffffffffffffffffffff168152602001600081526020016000151581525090565b60006136006135fb846159d5565b6159a4565b90508281526020810184848401111561361857600080fd5b613623848285615b62565b509392505050565b600061363e613639846159d5565b6159a4565b90508281526020810184848401111561365657600080fd5b613661848285615b71565b509392505050565b60008135905061367881615c13565b92915050565b60008151905061368d81615c13565b92915050565b6000813590506136a281615c2a565b92915050565b6000815190506136b781615c41565b92915050565b6000813590506136cc81615c58565b92915050565b6000815190506136e181615c58565b92915050565b60008083601f8401126136f957600080fd5b8235905067ffffffffffffffff81111561371257600080fd5b60208301915083600182028301111561372a57600080fd5b9250929050565b600082601f83011261374257600080fd5b81356137528482602086016135ed565b91505092915050565b600082601f83011261376c57600080fd5b815161377c84826020860161362b565b91505092915050565b600060c0828403121561379757600080fd5b6137a160c06159a4565b905060006137b18482850161367e565b600083015250602082015167ffffffffffffffff8111156137d157600080fd5b6137dd8482850161375b565b602083015250604082015167ffffffffffffffff8111156137fd57600080fd5b6138098482850161375b565b604083015250606061381d8482850161367e565b6060830152506080613831848285016136a8565b60808301525060a06138458482850161367e565b60a08301525092915050565b60006080828403121561386357600080fd5b61386d60806159a4565b9050600061387d8482850161367e565b600083015250602082015167ffffffffffffffff81111561389d57600080fd5b6138a98482850161375b565b60208301525060406138bd848285016136a8565b60408301525060606138d1848285016136a8565b60608301525092915050565b6000813590506138ec81615c6f565b92915050565b60008151905061390181615c6f565b92915050565b60006020828403121561391957600080fd5b600061392784828501613669565b91505092915050565b6000806000806060858703121561394657600080fd5b600061395487828801613693565b9450506020613965878288016138dd565b935050604085013567ffffffffffffffff81111561398257600080fd5b61398e878288016136e7565b925092505092959194509250565b600080604083850312156139af57600080fd5b60006139bd85828601613669565b92505060206139ce85828601613669565b9150509250929050565b6000806000806000608086880312156139f057600080fd5b60006139fe88828901613669565b9550506020613a0f88828901613669565b945050604086013567ffffffffffffffff811115613a2c57600080fd5b613a38888289016136e7565b93509350506060613a4b888289016138dd565b9150509295509295909350565b600080600060608486031215613a6d57600080fd5b6000613a7b86828701613669565b9350506020613a8c86828701613669565b9250506040613a9d868287016138dd565b9150509250925092565b60008060408385031215613aba57600080fd5b6000613ac885828601613669565b9250506020613ad9858286016136bd565b9150509250929050565b60008060008060608587031215613af957600080fd5b6000613b0787828801613669565b945050602085013567ffffffffffffffff811115613b2457600080fd5b613b30878288016136e7565b93509350506040613b43878288016138dd565b91505092959194509250565b600060208284031215613b6157600080fd5b6000613b6f848285016136a8565b91505092915050565b600060208284031215613b8a57600080fd5b6000613b98848285016136d2565b91505092915050565b60008060208385031215613bb457600080fd5b600083013567ffffffffffffffff811115613bce57600080fd5b613bda858286016136e7565b92509250509250929050565b600060208284031215613bf857600080fd5b600082013567ffffffffffffffff811115613c1257600080fd5b613c1e84828501613731565b91505092915050565b600060208284031215613c3957600080fd5b600082015167ffffffffffffffff811115613c5357600080fd5b613c5f84828501613785565b91505092915050565b600060208284031215613c7a57600080fd5b600082015167ffffffffffffffff811115613c9457600080fd5b613ca084828501613851565b91505092915050565b600060208284031215613cbb57600080fd5b6000613cc9848285016138f2565b91505092915050565b600080600060608486031215613ce757600080fd5b6000613cf5868287016138dd565b9350506020613d0686828701613693565b9250506040613d17868287016138dd565b9150509250925092565b613d2a81615ab6565b82525050565b613d3981615ab6565b82525050565b613d4881615ada565b82525050565b613d5781615ada565b82525050565b613d6681615ae6565b82525050565b613d7581615b1a565b82525050565b613d8481615b3e565b82525050565b6000613d968385615a10565b9350613da3838584615b62565b613dac83615c02565b840190509392505050565b6000613dc38385615a21565b9350613dd0838584615b62565b82840190509392505050565b6000613de9602383615a10565b91507f43544d3a204e67616e20717579206b686f6e67206475207469656e206465206860008301527f6f616e00000000000000000000000000000000000000000000000000000000006020830152604082019050919050565b6000613e4f602283615a10565b91507f43544d3a2044696120636869206b686f206b686f6e6720746865206c61207a6560008301527f726f0000000000000000000000000000000000000000000000000000000000006020830152604082019050919050565b6000613eb5603683615a10565b91507f43544d3a20536f207469656e2076756f74207175612067696f692068616e206360008301527f68696e682073616368206d6f6920646f6e2068616e67000000000000000000006020830152604082019050919050565b6000613f1b601c83615a10565b91507f43544d3a20527574207469656e206368756e67207468617420626169000000006000830152602082019050919050565b6000613f5b602c83615a10565b91507f43544d3a204e67756f6920676f69206b686f6e672070686169204769616d206460008301527f6f6320546169206368696e6800000000000000000000000000000000000000006020830152604082019050919050565b6000613fc1603183615a10565b91507f43544d3a204769616d20646f63206d6f69207468696575207661692074726f2060008301527f46494e5f4449524543544f525f524f4c450000000000000000000000000000006020830152604082019050919050565b6000614027602f83615a10565b91507f43544d3a2044696120636869204e4343206b686f6e6720746865206c61207a6560008301527f726f2064652067696169206e67616e00000000000000000000000000000000006020830152604082019050919050565b600061408d602483615a10565b91507f43544d3a20536f207469656e206b79207175792070686169206c6120736f206460008301527f756f6e67000000000000000000000000000000000000000000000000000000006020830152604082019050919050565b60006140f3603183615a10565b91507f43544d3a2044696120636869206b686163682068616e67206b686f6e6720686f60008301527f70206c6520646520686f616e207469656e0000000000000000000000000000006020830152604082019050919050565b6000614159602083615a10565b91507f43544d3a204e4343206b686f6e67206b686f702064652067696169206e67616e6000830152602082019050919050565b6000614199602283615a10565b91507f43544d3a2044696120636869204e4343206b686f6e6720746865206c61207a6560008301527f726f0000000000000000000000000000000000000000000000000000000000006020830152604082019050919050565b60006141ff601e83615a10565b91507f43544d3a204e67756f6920676f69206b686f6e6720706861692057534f4d00006000830152602082019050919050565b600061423f602e83615a10565b91507f43544d3a2044696120636869206b686f206b686f6e6720746865206c61207a6560008301527f726f20646520686f616e207472610000000000000000000000000000000000006020830152604082019050919050565b60006142a5602683615a10565b91507f4f776e61626c653a206e6577206f776e657220697320746865207a65726f206160008301527f64647265737300000000000000000000000000000000000000000000000000006020830152604082019050919050565b600061430b602c83615a10565b91507f43544d3a20494420646f6e2068616e67206b686f6e672064756f6320726f6e6760008301527f20646520686f616e2074726100000000000000000000000000000000000000006020830152604082019050919050565b6000614371602383615a10565b91507f43544d3a20536f207469656e206b686f6e67206b686f7020646520686f616e2060008301527f74726100000000000000000000000000000000000000000000000000000000006020830152604082019050919050565b60006143d7603583615a10565b91507f43544d3a20446961206368692064756f632067616e207468696575207661692060008301527f74726f2046494e5f4449524543544f525f524f4c4500000000000000000000006020830152604082019050919050565b600061443d602583615a10565b91507f43544d3a204e67616e20717579206b686f6e67206475207469656e206465206b60008301527f79207175790000000000000000000000000000000000000000000000000000006020830152604082019050919050565b60006144a3603183615a10565b91507f43544d3a204b686f6e6720636f206368696e682073616368206368692074696560008301527f752063686f206b686f2f6e6363206e61790000000000000000000000000000006020830152604082019050919050565b6000614509601b83615a10565b91507f43544d3a204e67616e20717579206b686f6e67206475207469656e00000000006000830152602082019050919050565b6000614549601d83615a10565b91507f43544d3a20536f207469656e2070686169206c6120736f2064756f6e670000006000830152602082019050919050565b6000614589602b83615a10565b91507f43544d3a204769616d20646f63206d6f69206b686f6e6720746865206c61206460008301527f696120636869207a65726f0000000000000000000000000000000000000000006020830152604082019050919050565b60006145ef601f83615a10565b91507f43544d3a204e4343206b686f6e6720746f6e207461692074726f6e6720494d006000830152602082019050919050565b600061462f602d83615a10565b91507f43544d3a20494420646f6e2068616e67206b686f6e672064756f6320726f6e6760008301527f2064652067696169206e67616e000000000000000000000000000000000000006020830152604082019050919050565b6000614695603683615a10565b91507f43544d3a204469612063686920526f6c654d616e6167656d656e74206461792060008301527f647520636875612064756f63207468696574206c6170000000000000000000006020830152604082019050919050565b60006146fb602d83615a10565b91507f43544d3a204944206b7920717579206461206b69636820686f617420686f616360008301527f206b686f6e6720686f70206c65000000000000000000000000000000000000006020830152604082019050919050565b6000614761602783615a10565b91507f43544d3a2044696120636869204769616d20646f63206b686f6e67207468652060008301527f6c61207a65726f000000000000000000000000000000000000000000000000006020830152604082019050919050565b60006147c7602983615a10565b91507f43544d3a204e67756f69206e68616e206b686f6e6720746865206c612064696160008301527f20636869207a65726f00000000000000000000000000000000000000000000006020830152604082019050919050565b600061482d603b83615a10565b91507f43544d3a204b7920717579206b686f6e67206b69636820686f617420686f616360008301527f206b686f6e672074696d207468617920646520686f616e2074726100000000006020830152604082019050919050565b6000614893602983615a10565b91507f43544d3a2044696120636869204e4343206b7920717579206b686f6e6720746860008301527f65206c61207a65726f00000000000000000000000000000000000000000000006020830152604082019050919050565b60006148f9602b83615a10565b91507f43544d3a20536f207469656e20676f70206b686f6e672064756e6720766f692060008301527f6465207875617420766f6e0000000000000000000000000000000000000000006020830152604082019050919050565b600061495f604c83615a10565b91507f43544d3a204b686f6e6720636f206465207875617420766f6e2063686f20756e60008301527f67207669656e206e617920686f616320526f6c654d616e6167656d656e74206360208301527f6875612073616e2073616e6700000000000000000000000000000000000000006040830152606082019050919050565b60006149eb602f83615a10565b91507f43544d3a2056756f74207175612067696f692068616e2063686920746965752060008301527f64696e68206b7920637561206b686f00000000000000000000000000000000006020830152604082019050919050565b6000614a51602083615a10565b91507f4f776e61626c653a2063616c6c6572206973206e6f7420746865206f776e65726000830152602082019050919050565b6000614a91602083615a10565b91507f43544d3a20536f207469656e20686f616e2070686169206c6f6e20686f6e20306000830152602082019050919050565b6000614ad1602b83615a10565b91507f43544d3a2043686920434f4d206d6f692064756f63207965752063617520686f60008301527f616e207469656e206e61790000000000000000000000000000000000000000006020830152604082019050919050565b6000614b37601d83615a10565b91507f43544d3a204469612063686920434f4d206b686f6e6720686f70206c650000006000830152602082019050919050565b6000614b77603b83615a10565b91507f43544d3a20536f20647520637561206e67756f6920676975207661692074726f60008301527f206d75632074696575206b686f6e672064756f69206e67756f6e6700000000006020830152604082019050919050565b6000614bdd603c83615a10565b91507f43544d3a204b7920717579206b686f6e67206b69636820686f617420686f616360008301527f206b686f6e672074696d20746861792064652067696169206e67616e000000006020830152604082019050919050565b6000614c43600083615a05565b9150600082019050919050565b6000614c5d602083615a10565b91507f43544d3a2043687579656e207469656e206e6f6920626f2074686174206261696000830152602082019050919050565b6000614c9d603083615a10565b91507f43544d3a2044696120636869206e67756f6920676975207661692074726f206b60008301527f686f6e6720746865206c61207a65726f000000000000000000000000000000006020830152604082019050919050565b6000614d03602783615a10565b91507f43544d3a20494420646f6e2068616e67206b7920717579206b686f6e6720647560008301527f6f6320726f6e67000000000000000000000000000000000000000000000000006020830152604082019050919050565b6000614d69602d83615a10565b91507f43544d3a20486f616e207469656e2063686f206b68616368207475206e67616e60008301527f20717579207468617420626169000000000000000000000000000000000000006020830152604082019050919050565b6000614dcf603483615a10565b91507f43544d3a2044696120636869206d75632074696575206b686f6e6720636f207660008301527f61692074726f2064756f63206368692064696e680000000000000000000000006020830152604082019050919050565b6000614e35601f83615a10565b91507f43544d3a204b686f206b686f6e67206b686f7020646520686f616e20747261006000830152602082019050919050565b6000614e75602483615a10565b91507f43544d3a20536f207469656e206b686f6e67206b686f7020646520676961692060008301527f6e67616e000000000000000000000000000000000000000000000000000000006020830152604082019050919050565b6000614edb601f83615a10565b91507f5265656e7472616e637947756172643a207265656e7472616e742063616c6c006000830152602082019050919050565b6000614f1b601e83615a10565b91507f43544d3a20446961206368692057534f4d206b686f6e6720686f70206c6500006000830152602082019050919050565b6000614f5b601f83615a10565b91507f43544d3a204b686f206b686f6e6720746f6e207461692074726f6e6720494d006000830152602082019050919050565b6000614f9b602983615a10565b91507f43544d3a2044696120636869206b686f206b7920717579206b686f6e6720746860008301527f65206c61207a65726f00000000000000000000000000000000000000000000006020830152604082019050919050565b6000615001604483615a10565b91507f43544d3a204b686f6e6720746865206e6170207469656e2063686f207661692060008301527f74726f204769616d20646f6320546169206368696e68207468656f206361636860208301527f206e6179000000000000000000000000000000000000000000000000000000006040830152606082019050919050565b600061508d602d83615a10565b91507f43544d3a204769616d20646f63206d6f69207472756e6720766f69206769616d60008301527f20646f63206869656e20746169000000000000000000000000000000000000006020830152604082019050919050565b6080820160008201516150fc6000850182613d21565b50602082015161510f6020850182613d21565b506040820151615122604085018261513b565b5060608201516151356060850182613d3f565b50505050565b61514481615b10565b82525050565b61515381615b10565b82525050565b6000615166828486613db7565b91508190509392505050565b600061517d82614c36565b9150819050919050565b600060208201905061519c6000830184613d30565b92915050565b60006080820190506151b76000830187613d30565b6151c46020830186613d30565b6151d1604083018561514a565b6151de6060830184613d4e565b95945050505050565b60006040820190506151fc6000830185613d30565b615209602083018461514a565b9392505050565b60006020820190506152256000830184613d4e565b92915050565b60006040820190506152406000830185613d5d565b61524d6020830184613d30565b9392505050565b60006020820190506152696000830184613d6c565b92915050565b60006020820190506152846000830184613d7b565b92915050565b600060408201905081810360008301526152a5818587613d8a565b90506152b4602083018461514a565b949350505050565b600060208201905081810360008301526152d581613ddc565b9050919050565b600060208201905081810360008301526152f581613e42565b9050919050565b6000602082019050818103600083015261531581613ea8565b9050919050565b6000602082019050818103600083015261533581613f0e565b9050919050565b6000602082019050818103600083015261535581613f4e565b9050919050565b6000602082019050818103600083015261537581613fb4565b9050919050565b600060208201905081810360008301526153958161401a565b9050919050565b600060208201905081810360008301526153b581614080565b9050919050565b600060208201905081810360008301526153d5816140e6565b9050919050565b600060208201905081810360008301526153f58161414c565b9050919050565b600060208201905081810360008301526154158161418c565b9050919050565b60006020820190508181036000830152615435816141f2565b9050919050565b6000602082019050818103600083015261545581614232565b9050919050565b6000602082019050818103600083015261547581614298565b9050919050565b60006020820190508181036000830152615495816142fe565b9050919050565b600060208201905081810360008301526154b581614364565b9050919050565b600060208201905081810360008301526154d5816143ca565b9050919050565b600060208201905081810360008301526154f581614430565b9050919050565b6000602082019050818103600083015261551581614496565b9050919050565b60006020820190508181036000830152615535816144fc565b9050919050565b600060208201905081810360008301526155558161453c565b9050919050565b600060208201905081810360008301526155758161457c565b9050919050565b60006020820190508181036000830152615595816145e2565b9050919050565b600060208201905081810360008301526155b581614622565b9050919050565b600060208201905081810360008301526155d581614688565b9050919050565b600060208201905081810360008301526155f5816146ee565b9050919050565b6000602082019050818103600083015261561581614754565b9050919050565b60006020820190508181036000830152615635816147ba565b9050919050565b6000602082019050818103600083015261565581614820565b9050919050565b6000602082019050818103600083015261567581614886565b9050919050565b60006020820190508181036000830152615695816148ec565b9050919050565b600060208201905081810360008301526156b581614952565b9050919050565b600060208201905081810360008301526156d5816149de565b9050919050565b600060208201905081810360008301526156f581614a44565b9050919050565b6000602082019050818103600083015261571581614a84565b9050919050565b6000602082019050818103600083015261573581614ac4565b9050919050565b6000602082019050818103600083015261575581614b2a565b9050919050565b6000602082019050818103600083015261577581614b6a565b9050919050565b6000602082019050818103600083015261579581614bd0565b9050919050565b600060208201905081810360008301526157b581614c50565b9050919050565b600060208201905081810360008301526157d581614c90565b9050919050565b600060208201905081810360008301526157f581614cf6565b9050919050565b6000602082019050818103600083015261581581614d5c565b9050919050565b6000602082019050818103600083015261583581614dc2565b9050919050565b6000602082019050818103600083015261585581614e28565b9050919050565b6000602082019050818103600083015261587581614e68565b9050919050565b6000602082019050818103600083015261589581614ece565b9050919050565b600060208201905081810360008301526158b581614f0e565b9050919050565b600060208201905081810360008301526158d581614f4e565b9050919050565b600060208201905081810360008301526158f581614f8e565b9050919050565b6000602082019050818103600083015261591581614ff4565b9050919050565b6000602082019050818103600083015261593581615080565b9050919050565b600060808201905061595160008301846150e6565b92915050565b600060208201905061596c600083018461514a565b92915050565b6000604082019050615987600083018661514a565b818103602083015261599a818486613d8a565b9050949350505050565b6000604051905081810181811067ffffffffffffffff821117156159cb576159ca615bd3565b5b8060405250919050565b600067ffffffffffffffff8211156159f0576159ef615bd3565b5b601f19601f8301169050602081019050919050565b600081905092915050565b600082825260208201905092915050565b600081905092915050565b6000615a3782615b10565b9150615a4283615b10565b9250827fffffffffffffffffffffffffffffffffffffffffffffffffffffffffffffffff03821115615a7757615a76615ba4565b5b828201905092915050565b6000615a8d82615b10565b9150615a9883615b10565b925082821015615aab57615aaa615ba4565b5b828203905092915050565b6000615ac182615af0565b9050919050565b6000615ad382615af0565b9050919050565b60008115159050919050565b6000819050919050565b600073ffffffffffffffffffffffffffffffffffffffff82169050919050565b6000819050919050565b6000615b2582615b2c565b9050919050565b6000615b3782615af0565b9050919050565b6000615b4982615b50565b9050919050565b6000615b5b82615af0565b9050919050565b82818337600083830152505050565b60005b83811015615b8f578082015181840152602081019050615b74565b83811115615b9e576000848401525b50505050565b7f4e487b7100000000000000000000000000000000000000000000000000000000600052601160045260246000fd5b7f4e487b7100000000000000000000000000000000000000000000000000000000600052604160045260246000fd5b6000601f19601f8301169050919050565b615c1c81615ab6565b8114615c2757600080fd5b50565b615c3381615ac8565b8114615c3e57600080fd5b50565b615c4a81615ada565b8114615c5557600080fd5b50565b615c6181615ae6565b8114615c6c57600080fd5b50565b615c7881615b10565b8114615c8357600080fd5b5056fea2646970667358221220d4f57179c239430552375207e899fcfff56b2c1f726d97260ada6bedfda38fb764736f6c63430008000033",
  "immutableReferences": {
    "3564": [
      {
        "length": 32,
        "start": 3640
      },
      {
        "length": 32,
        "start": 3800
      },
      {
        "length": 32,
        "start": 5858
      },
      {
        "length": 32,
        "start": 6018
      },
      {
        "length": 32,
        "start": 9793
      },
      {
        "length": 32,
        "start": 10159
      },
      {
        "length": 32,
        "start": 10395
      }
    ],
    "3567": [
      {
        "length": 32,
        "start": 7418
      },
      {
        "length": 32,
        "start": 7664
      },
      {
        "length": 32,
        "start": 9829
      }
    ]
  },
  "source": "// SPDX-License-Identifier: MIT\r\npragma solidity ^0.8.0; \r\n\r\nimport \"@openzeppelin/contracts/access/Ownable.sol\";\r\nimport \"@openzeppelin/contracts/security/ReentrancyGuard.sol\"; //  sa ng dn import\r\n\r\n// --- INTERFACES ---\r\n// Khai bo trc cu trc t ItemsManagement (nu bn dng struct trc tip trong interface)\r\n// Nu khng, ch cn khai bo interface l .\r\ncontract ItemsManagement { \r\n    struct PhysicalLocationInfo { address locationId; string name; string locationType; address manager; bool exists; address designatedSourceWarehouseAddress; }\r\n    struct SupplierInfo { address supplierId; string name; bool isApprovedByBoard; bool exists;}\r\n}\r\n\r\n// Interface cho RoleManagement \r\ninterface IRoleManagementMinimal { // Interface ti thiu RoleManagement m CTM cn\r\n    function FINANCE_DIRECTOR_ROLE() external view returns (bytes32);\r\n    function WAREHOUSE_MANAGER_ROLE() external view returns (bytes32); // Gi li nu cn dng cho logic top-up\r\n    function hasRole(bytes32 role, address account) external view returns (bool);\r\n}\r\n\r\n// Interface MI  CTM tng tc vi RoleManagement cho vic kch hot BH\r\ninterface IRoleManagementForBoardActivation {\r\n    function activateBoardMemberByTreasury(address candidate, uint256 contributedAmount) external;\r\n    function getProposedShareCapital(address candidate) external view returns (uint256);\r\n}\r\n\r\n// Interface cho ItemsManagement\r\ninterface IItemsManagementMinimal { // Interface ti thiu ItemsManagement m CTM cn\r\n    function getWarehouseInfo(address warehouseAddress) external view returns (ItemsManagement.PhysicalLocationInfo memory);\r\n    function getSupplierInfo(address supplierAddress) external view returns (ItemsManagement.SupplierInfo memory);\r\n}\r\n// --- END INTERFACES ---\r\n\r\n\r\n// Hp ng Qun l Ngn qu Cng ty\r\ncontract CompanyTreasuryManager is Ownable, ReentrancyGuard {\r\n    IRoleManagementMinimal public immutable roleManagement;    // Dng interface ti thiu\r\n    IItemsManagementMinimal public immutable itemsManagement; // Dng interface ti thiu\r\n    \r\n    address public roleManagementFullAddress; // a ch y  ca RoleManagement cho vic kch hot BH v cc chc nng khc nu cn\r\n    address public warehouseSupplierOrderManagement;\r\n    address public customerOrderManagementAddress; \r\n\r\n    address public financeDirector; \r\n\r\n    uint256 public constant INTERNAL_ROLE_TOP_UP_THRESHOLD = 20 ether;\r\n    uint256 public constant INTERNAL_ROLE_TOP_UP_AMOUNT = 5 ether;\r\n    mapping(address => mapping(address => uint256)) public warehouseSpendingPolicies; \r\n    mapping(address => uint256) public warehouseSpendingThisPeriod; \r\n    uint256 public constant WAREHOUSE_SPENDING_LIMIT_PER_PERIOD = 100 ether;\r\n    struct EscrowDetails { address warehouseAddress; address supplierAddress; uint256 amount; bool active; }\r\n    mapping(string => EscrowDetails) public activeEscrows;\r\n\r\n    // S kin\r\n    event FundsDeposited(address indexed from, uint256 amount);\r\n    event InitialCapitalReceived(uint256 amount); // Vn ban u khi deploy CTM\r\n    event BoardMemberContributionReceived(address indexed candidate, uint256 amount); // Khi ng vin BH gp vn\r\n    event InternalTransfer(address indexed by, address indexed toRoleHolder, uint256 amount);\r\n    event SupplierPaymentEscrowed(string internalOrderId, address indexed warehouse, address indexed supplier, uint256 amount);\r\n    event SupplierPaymentReleased(string internalOrderId, address indexed supplier, uint256 amount);\r\n    event EscrowRefunded(string internalOrderId, address indexed warehouse, uint256 amount);\r\n    event SpendingPolicySet(address indexed setBy, address indexed warehouse, address indexed supplier, uint256 maxAmount);\r\n    event FinanceDirectorSet(address indexed newDirector);\r\n    event RoleManagementFullAddressSet(address indexed rmFullAddress);\r\n    event WarehouseSupplierOrderManagementAddressSet(address indexed wsomAddress);\r\n    event CustomerOrderManagementAddressSet(address indexed comAddress);\r\n    event GeneralWithdrawal(address indexed by, address indexed recipient, uint256 amount, string reason);\r\n    event CustomerRefundProcessedFromTreasury(uint256 indexed orderId, address indexed customer, uint256 amount);\r\n\r\n    modifier onlyFinanceDirector() {\r\n        require(msg.sender == financeDirector, \"CTM: Nguoi goi khong phai Giam doc Tai chinh\");\r\n        _;\r\n    }\r\n\r\n    constructor(\r\n        address _roleManagementAddress,     // a ch RoleManagement\r\n        address _itemsManagementAddress,\r\n        uint256 _expectedInitialCapital     // Vn ban u khi deploy CTM (v d, t ngi deploy t gp)\r\n    ) Ownable() payable { // Sa: Ownable() khng c tham s\r\n        require(_roleManagementAddress != address(0), \"CTM: Dia chi RoleManagement khong hop le\");\r\n        require(_itemsManagementAddress != address(0), \"CTM: Dia chi ItemsManagement khong hop le\");\r\n        require(_expectedInitialCapital >= 0, \"CTM: Von ban dau du kien khong the am\"); // Cho php vn ban u l 0\r\n\r\n        roleManagement = IRoleManagementMinimal(_roleManagementAddress);\r\n        itemsManagement = IItemsManagementMinimal(_itemsManagementAddress);\r\n        roleManagementFullAddress = _roleManagementAddress; // Lu a ch y   gi cc hm trong IRoleManagementForBoardActivation\r\n\r\n        if (_expectedInitialCapital > 0) {\r\n            require(msg.value == _expectedInitialCapital, \"CTM: So von ban dau gui khong chinh xac\");\r\n            emit InitialCapitalReceived(msg.value);\r\n        } else {\r\n            // Nu vn ban u d kin l 0, khng nn gi Ether km theo\r\n            require(msg.value == 0, \"CTM: Khong nen gui Ether neu von ban dau du kien la 0\");\r\n        }\r\n    }\r\n\r\n    function setWarehouseSupplierOrderManagementAddress(address _wsomAddress) external onlyOwner {\r\n        require(_wsomAddress != address(0), \"CTM: Dia chi WSOM khong hop le\");\r\n        warehouseSupplierOrderManagement = _wsomAddress;\r\n        emit WarehouseSupplierOrderManagementAddressSet(_wsomAddress);\r\n    }\r\n\r\n    function setCustomerOrderManagementAddress(address _comAddress) external onlyOwner {\r\n        require(_comAddress != address(0), \"CTM: Dia chi COM khong hop le\");\r\n        customerOrderManagementAddress = _comAddress;\r\n        emit CustomerOrderManagementAddressSet(_comAddress);\r\n    }\r\n\r\n    function setInitialFinanceDirector(address _director) external onlyOwner {\r\n        require(_director != address(0), \"CTM: Dia chi Giam doc khong the la zero\");\r\n        bytes32 finDirectorRole = roleManagement.FINANCE_DIRECTOR_ROLE(); \r\n        require(roleManagement.hasRole(finDirectorRole, _director), \"CTM: Dia chi duoc gan thieu vai tro FIN_DIRECTOR_ROLE\");\r\n        financeDirector = _director;\r\n        emit FinanceDirectorSet(_director);\r\n    }\r\n\r\n    receive() external payable {\r\n        emit FundsDeposited(msg.sender, msg.value);\r\n    }\r\n\r\n    function transferToInternalRole(address _roleHolderAddress, bytes32 _roleKey)\r\n        external\r\n        onlyFinanceDirector\r\n        nonReentrant\r\n    {\r\n        require(_roleHolderAddress != address(0), \"CTM: Dia chi nguoi giu vai tro khong the la zero\");\r\n        require(roleManagement.hasRole(_roleKey, _roleHolderAddress), \"CTM: Dia chi muc tieu khong co vai tro duoc chi dinh\");\r\n        bytes32 finDirectorRole = roleManagement.FINANCE_DIRECTOR_ROLE();\r\n        require(_roleKey != finDirectorRole, \"CTM: Khong the nap tien cho vai tro Giam doc Tai chinh theo cach nay\");\r\n\r\n        uint256 targetBalance = _roleHolderAddress.balance;\r\n        require(targetBalance < INTERNAL_ROLE_TOP_UP_THRESHOLD, \"CTM: So du cua nguoi giu vai tro muc tieu khong duoi nguong\");\r\n        uint256 amountToSend = INTERNAL_ROLE_TOP_UP_AMOUNT;\r\n        require(address(this).balance >= amountToSend, \"CTM: Ngan quy khong du tien\");\r\n\r\n        (bool success, ) = payable(_roleHolderAddress).call{value: amountToSend}(\"\");\r\n        require(success, \"CTM: Chuyen tien noi bo that bai\");\r\n        emit InternalTransfer(msg.sender, _roleHolderAddress, amountToSend);\r\n    }\r\n\r\n    function setWarehouseSpendingPolicy(\r\n        address _warehouseAddress,\r\n        address _supplierAddress,\r\n        uint256 _maxAmountPerOrder\r\n    ) external onlyFinanceDirector {\r\n        require(_warehouseAddress != address(0), \"CTM: Dia chi kho khong the la zero\");\r\n        require(_supplierAddress != address(0), \"CTM: Dia chi NCC khong the la zero\");\r\n\r\n        ItemsManagement.PhysicalLocationInfo memory whInfo = itemsManagement.getWarehouseInfo(_warehouseAddress);\r\n        require(whInfo.exists, \"CTM: Kho khong ton tai trong IM\");\r\n        ItemsManagement.SupplierInfo memory supInfo = itemsManagement.getSupplierInfo(_supplierAddress);\r\n        require(supInfo.exists, \"CTM: NCC khong ton tai trong IM\");\r\n\r\n        warehouseSpendingPolicies[_warehouseAddress][_supplierAddress] = _maxAmountPerOrder;\r\n        emit SpendingPolicySet(msg.sender, _warehouseAddress, _supplierAddress, _maxAmountPerOrder);\r\n    }\r\n\r\n    function generalWithdrawal(address payable _recipient, uint256 _amount, string calldata _reason)\r\n        external\r\n        onlyFinanceDirector\r\n        nonReentrant\r\n    {\r\n        require(_recipient != address(0), \"CTM: Nguoi nhan khong the la dia chi zero\");\r\n        require(_amount > 0, \"CTM: So tien phai la so duong\");\r\n        require(address(this).balance >= _amount, \"CTM: Ngan quy khong du tien\");\r\n\r\n        (bool success, ) = _recipient.call{value: _amount}(\"\");\r\n        require(success, \"CTM: Rut tien chung that bai\");\r\n        emit GeneralWithdrawal(msg.sender, _recipient, _amount, _reason);\r\n    }\r\n\r\n    function changeFinanceDirector(address _newDirector) external onlyOwner {\r\n        require(_newDirector != address(0), \"CTM: Giam doc moi khong the la dia chi zero\");\r\n        bytes32 finDirectorRole = roleManagement.FINANCE_DIRECTOR_ROLE();\r\n        require(roleManagement.hasRole(finDirectorRole, _newDirector), \"CTM: Giam doc moi thieu vai tro FIN_DIRECTOR_ROLE\");\r\n        require(_newDirector != financeDirector, \"CTM: Giam doc moi trung voi giam doc hien tai\");\r\n        financeDirector = _newDirector;\r\n        emit FinanceDirectorSet(_newDirector);\r\n    }\r\n\r\n    function requestEscrowForSupplierOrder(\r\n        address _warehouseAddress,\r\n        address _supplierAddress,\r\n        string calldata _internalSupplierOrderId,\r\n        uint256 _amount\r\n    ) external nonReentrant returns (bool) {\r\n        require(msg.sender == warehouseSupplierOrderManagement, \"CTM: Nguoi goi khong phai WSOM\");\r\n        require(_warehouseAddress != address(0), \"CTM: Dia chi kho ky quy khong the la zero\");\r\n        require(_supplierAddress != address(0), \"CTM: Dia chi NCC ky quy khong the la zero\");\r\n        require(bytes(_internalSupplierOrderId).length > 0, \"CTM: ID don hang ky quy khong duoc rong\");\r\n        require(_amount > 0, \"CTM: So tien ky quy phai la so duong\");\r\n        require(!activeEscrows[_internalSupplierOrderId].active, \"CTM: ID ky quy da kich hoat hoac khong hop le\");\r\n\r\n        uint256 maxAmountAllowed = warehouseSpendingPolicies[_warehouseAddress][_supplierAddress];\r\n        require(maxAmountAllowed > 0, \"CTM: Khong co chinh sach chi tieu cho kho/ncc nay\");\r\n        require(_amount <= maxAmountAllowed, \"CTM: So tien vuot qua gioi han chinh sach moi don hang\");\r\n\r\n        uint256 spendingAfterThisOrder = warehouseSpendingThisPeriod[_warehouseAddress] + _amount;\r\n        require(spendingAfterThisOrder <= WAREHOUSE_SPENDING_LIMIT_PER_PERIOD, \"CTM: Vuot qua gioi han chi tieu dinh ky cua kho\");\r\n        require(address(this).balance >= _amount, \"CTM: Ngan quy khong du tien de ky quy\");\r\n\r\n        activeEscrows[_internalSupplierOrderId] = EscrowDetails({\r\n            warehouseAddress: _warehouseAddress, supplierAddress: _supplierAddress, amount: _amount, active: true\r\n        });\r\n        warehouseSpendingThisPeriod[_warehouseAddress] = spendingAfterThisOrder;\r\n        emit SupplierPaymentEscrowed(_internalSupplierOrderId, _warehouseAddress, _supplierAddress, _amount);\r\n        return true;\r\n    }\r\n\r\n    function releaseEscrowToSupplier(\r\n        address _supplierAddressToVerify,\r\n        string calldata _internalSupplierOrderId,\r\n        uint256 _amountToVerify\r\n    ) external nonReentrant returns (bool) {\r\n        require(msg.sender == warehouseSupplierOrderManagement, \"CTM: Nguoi goi khong phai WSOM\");\r\n        require(_supplierAddressToVerify != address(0), \"CTM: Dia chi NCC khong the la zero de giai ngan\");\r\n        require(bytes(_internalSupplierOrderId).length > 0, \"CTM: ID don hang khong duoc rong de giai ngan\");\r\n\r\n        EscrowDetails storage escrow = activeEscrows[_internalSupplierOrderId];\r\n        require(escrow.active, \"CTM: Ky quy khong kich hoat hoac khong tim thay de giai ngan\");\r\n        require(escrow.supplierAddress == _supplierAddressToVerify, \"CTM: NCC khong khop de giai ngan\");\r\n        require(escrow.amount == _amountToVerify, \"CTM: So tien khong khop de giai ngan\");\r\n\r\n        escrow.active = false;\r\n        (bool success, ) = payable(escrow.supplierAddress).call{value: escrow.amount}(\"\");\r\n        if (!success) {\r\n            escrow.active = true; \r\n            return false;\r\n        }\r\n        emit SupplierPaymentReleased(_internalSupplierOrderId, escrow.supplierAddress, escrow.amount);\r\n        return true;\r\n    }\r\n\r\n    function refundEscrowToTreasury(\r\n        address _warehouseAddressToVerify,\r\n        string calldata _internalSupplierOrderId,\r\n        uint256 _amountToVerify\r\n    ) external nonReentrant returns (bool) {\r\n        require(msg.sender == warehouseSupplierOrderManagement, \"CTM: Nguoi goi khong phai WSOM\");\r\n        require(_warehouseAddressToVerify != address(0), \"CTM: Dia chi kho khong the la zero de hoan tra\");\r\n        require(bytes(_internalSupplierOrderId).length > 0, \"CTM: ID don hang khong duoc rong de hoan tra\");\r\n\r\n        EscrowDetails storage escrow = activeEscrows[_internalSupplierOrderId];\r\n        require(escrow.active, \"CTM: Ky quy khong kich hoat hoac khong tim thay de hoan tra\");\r\n        require(escrow.warehouseAddress == _warehouseAddressToVerify, \"CTM: Kho khong khop de hoan tra\");\r\n        require(escrow.amount == _amountToVerify, \"CTM: So tien khong khop de hoan tra\");\r\n\r\n        escrow.active = false;\r\n        warehouseSpendingThisPeriod[escrow.warehouseAddress] -= escrow.amount;\r\n        emit EscrowRefunded(_internalSupplierOrderId, escrow.warehouseAddress, escrow.amount);\r\n        return true;\r\n    }\r\n\r\n    function refundCustomerOrderFromTreasury(\r\n        uint256 _orderId, \r\n        address payable _customerAddress, \r\n        uint256 _amountToRefund\r\n    )\r\n        external\r\n        nonReentrant\r\n    {\r\n        require(msg.sender == customerOrderManagementAddress, \"CTM: Chi COM moi duoc yeu cau hoan tien nay\");\r\n        require(_customerAddress != address(0), \"CTM: Dia chi khach hang khong hop le de hoan tien\");\r\n        require(_amountToRefund > 0, \"CTM: So tien hoan phai lon hon 0\");\r\n        require(address(this).balance >= _amountToRefund, \"CTM: Ngan quy khong du tien de hoan\");\r\n\r\n        (bool success, ) = _customerAddress.call{value: _amountToRefund}(\"\");\r\n        require(success, \"CTM: Hoan tien cho khach tu ngan quy that bai\");\r\n\r\n        emit CustomerRefundProcessedFromTreasury(_orderId, _customerAddress, _amountToRefund);\r\n    }\r\n\r\n    // ng vin BH gi vn gp vo y\r\n    function receiveBoardMemberContribution() external payable nonReentrant {\r\n        address candidate = msg.sender;\r\n        uint256 amountContributed = msg.value;\r\n\r\n        require(roleManagementFullAddress != address(0), \"CTM: Dia chi RoleManagement day du chua duoc thiet lap\");\r\n        \r\n        uint256 proposedCapital = IRoleManagementForBoardActivation(roleManagementFullAddress).getProposedShareCapital(candidate);\r\n        \r\n        require(proposedCapital > 0, \"CTM: Khong co de xuat von cho ung vien nay hoac RoleManagement chua san sang\");\r\n        require(amountContributed == proposedCapital, \"CTM: So tien gop khong dung voi de xuat von\");\r\n\r\n        // msg.value  t ng c cng vo s d ca contract ny\r\n        emit BoardMemberContributionReceived(candidate, amountContributed);\r\n\r\n        // Gi li RoleManagement  kch hot thnh vin\r\n        IRoleManagementForBoardActivation(roleManagementFullAddress).activateBoardMemberByTreasury(candidate, amountContributed);\r\n    }\r\n\r\n    function getBalance() external view returns (uint256) { return address(this).balance; }\r\n    function getWarehouseSpendingPolicy(address _warehouseAddress, address _supplierAddress) external view returns (uint256) { return warehouseSpendingPolicies[_warehouseAddress][_supplierAddress]; }\r\n    function getWarehouseSpendingThisPeriod(address _warehouseAddress) external view returns (uint256) { return warehouseSpendingThisPeriod[_warehouseAddress]; }\r\n    function getEscrowDetails(string calldata _internalSupplierOrderId) external view returns (EscrowDetails memory) { return activeEscrows[_internalSupplierOrderId]; }\r\n    function WAREHOUSE_SPENDING_LIMIT_PER_PERIOD_CONST() external pure returns (uint256) { return WAREHOUSE_SPENDING_LIMIT_PER_PERIOD; }\r\n    function INTERNAL_ROLE_TOP_UP_THRESHOLD_CONST() external pure returns (uint256) { return INTERNAL_ROLE_TOP_UP_THRESHOLD; }\r\n    function INTERNAL_ROLE_TOP_UP_AMOUNT_CONST() external pure returns (uint256) { return INTERNAL_ROLE_TOP_UP_AMOUNT; }\r\n}",
  "sourcePath": "D:\\nhi\\Logtech\\New tech in Log\\dapp\\truffle\\contracts\\Money.sol",
  "compiler": {
    "name": "solc",
    "version": "0.8.0+commit.c7dfd78e.Emscripten.clang"
  },
  "schemaVersion": "3.4.16",
  "updatedAt": "2025-05-31T21:22:30.856Z",
  "networkType": "ethereum",
  "devdoc": {
    "kind": "dev",
    "methods": {
      "owner()": {
        "details": "Returns the address of the current owner."
      },
      "renounceOwnership()": {
        "details": "Leaves the contract without owner. It will not be possible to call `onlyOwner` functions. Can only be called by the current owner. NOTE: Renouncing ownership will leave the contract without an owner, thereby disabling any functionality that is only available to the owner."
      },
      "transferOwnership(address)": {
        "details": "Transfers ownership of the contract to a new account (`newOwner`). Can only be called by the current owner."
      }
    },
    "version": 1
  },
  "userdoc": {
    "kind": "user",
    "methods": {},
    "version": 1
  }
}