{
  "contractName": "RoleManagement",
  "abi": [
    {
      "inputs": [],
      "stateMutability": "nonpayable",
      "type": "constructor"
    },
    {
      "anonymous": false,
      "inputs": [
        {
          "indexed": true,
          "internalType": "address",
          "name": "member",
          "type": "address"
        },
        {
          "indexed": false,
          "internalType": "uint256",
          "name": "shareCapitalContributed",
          "type": "uint256"
        }
      ],
      "name": "BoardMemberActivated",
      "type": "event"
    },
    {
      "anonymous": false,
      "inputs": [
        {
          "indexed": true,
          "internalType": "address",
          "name": "candidate",
          "type": "address"
        },
        {
          "indexed": false,
          "internalType": "uint256",
          "name": "shareCapitalProposed",
          "type": "uint256"
        }
      ],
      "name": "BoardMemberProposed",
      "type": "event"
    },
    {
      "anonymous": false,
      "inputs": [
        {
          "indexed": true,
          "internalType": "address",
          "name": "member",
          "type": "address"
        }
      ],
      "name": "BoardMemberRemoved",
      "type": "event"
    },
    {
      "anonymous": false,
      "inputs": [
        {
          "indexed": true,
          "internalType": "address",
          "name": "ctmAddress",
          "type": "address"
        }
      ],
      "name": "CompanyTreasuryManagerAddressSet",
      "type": "event"
    },
    {
      "anonymous": false,
      "inputs": [
        {
          "indexed": true,
          "internalType": "bytes32",
          "name": "role",
          "type": "bytes32"
        },
        {
          "indexed": true,
          "internalType": "bytes32",
          "name": "previousAdminRole",
          "type": "bytes32"
        },
        {
          "indexed": true,
          "internalType": "bytes32",
          "name": "newAdminRole",
          "type": "bytes32"
        }
      ],
      "name": "RoleAdminChanged",
      "type": "event"
    },
    {
      "anonymous": false,
      "inputs": [
        {
          "indexed": true,
          "internalType": "bytes32",
          "name": "role",
          "type": "bytes32"
        },
        {
          "indexed": true,
          "internalType": "address",
          "name": "account",
          "type": "address"
        },
        {
          "indexed": true,
          "internalType": "address",
          "name": "sender",
          "type": "address"
        }
      ],
      "name": "RoleGranted",
      "type": "event"
    },
    {
      "anonymous": false,
      "inputs": [
        {
          "indexed": true,
          "internalType": "bytes32",
          "name": "role",
          "type": "bytes32"
        },
        {
          "indexed": true,
          "internalType": "address",
          "name": "account",
          "type": "address"
        },
        {
          "indexed": true,
          "internalType": "address",
          "name": "sender",
          "type": "address"
        }
      ],
      "name": "RoleRevoked",
      "type": "event"
    },
    {
      "inputs": [],
      "name": "BOARD_ROLE",
      "outputs": [
        {
          "internalType": "bytes32",
          "name": "",
          "type": "bytes32"
        }
      ],
      "stateMutability": "view",
      "type": "function",
      "constant": true
    },
    {
      "inputs": [],
      "name": "DEFAULT_ADMIN_ROLE",
      "outputs": [
        {
          "internalType": "bytes32",
          "name": "",
          "type": "bytes32"
        }
      ],
      "stateMutability": "view",
      "type": "function",
      "constant": true
    },
    {
      "inputs": [],
      "name": "FINANCE_DIRECTOR_ROLE",
      "outputs": [
        {
          "internalType": "bytes32",
          "name": "",
          "type": "bytes32"
        }
      ],
      "stateMutability": "view",
      "type": "function",
      "constant": true
    },
    {
      "inputs": [],
      "name": "STORE_DIRECTOR_ROLE",
      "outputs": [
        {
          "internalType": "bytes32",
          "name": "",
          "type": "bytes32"
        }
      ],
      "stateMutability": "view",
      "type": "function",
      "constant": true
    },
    {
      "inputs": [],
      "name": "STORE_MANAGER_ROLE",
      "outputs": [
        {
          "internalType": "bytes32",
          "name": "",
          "type": "bytes32"
        }
      ],
      "stateMutability": "view",
      "type": "function",
      "constant": true
    },
    {
      "inputs": [],
      "name": "SUPPLIER_ROLE",
      "outputs": [
        {
          "internalType": "bytes32",
          "name": "",
          "type": "bytes32"
        }
      ],
      "stateMutability": "view",
      "type": "function",
      "constant": true
    },
    {
      "inputs": [],
      "name": "WAREHOUSE_DIRECTOR_ROLE",
      "outputs": [
        {
          "internalType": "bytes32",
          "name": "",
          "type": "bytes32"
        }
      ],
      "stateMutability": "view",
      "type": "function",
      "constant": true
    },
    {
      "inputs": [],
      "name": "WAREHOUSE_MANAGER_ROLE",
      "outputs": [
        {
          "internalType": "bytes32",
          "name": "",
          "type": "bytes32"
        }
      ],
      "stateMutability": "view",
      "type": "function",
      "constant": true
    },
    {
      "inputs": [
        {
          "internalType": "uint256",
          "name": "",
          "type": "uint256"
        }
      ],
      "name": "boardAddresses",
      "outputs": [
        {
          "internalType": "address",
          "name": "",
          "type": "address"
        }
      ],
      "stateMutability": "view",
      "type": "function",
      "constant": true
    },
    {
      "inputs": [
        {
          "internalType": "address",
          "name": "",
          "type": "address"
        }
      ],
      "name": "boardMembers",
      "outputs": [
        {
          "internalType": "uint256",
          "name": "shareCapitalProposed",
          "type": "uint256"
        },
        {
          "internalType": "uint256",
          "name": "shareCapitalContributed",
          "type": "uint256"
        },
        {
          "internalType": "enum RoleManagement.BoardMemberStatus",
          "name": "status",
          "type": "uint8"
        }
      ],
      "stateMutability": "view",
      "type": "function",
      "constant": true
    },
    {
      "inputs": [],
      "name": "companyTreasuryManagerAddress",
      "outputs": [
        {
          "internalType": "address",
          "name": "",
          "type": "address"
        }
      ],
      "stateMutability": "view",
      "type": "function",
      "constant": true
    },
    {
      "inputs": [
        {
          "internalType": "bytes32",
          "name": "role",
          "type": "bytes32"
        }
      ],
      "name": "getRoleAdmin",
      "outputs": [
        {
          "internalType": "bytes32",
          "name": "",
          "type": "bytes32"
        }
      ],
      "stateMutability": "view",
      "type": "function",
      "constant": true
    },
    {
      "inputs": [
        {
          "internalType": "bytes32",
          "name": "role",
          "type": "bytes32"
        },
        {
          "internalType": "address",
          "name": "account",
          "type": "address"
        }
      ],
      "name": "grantRole",
      "outputs": [],
      "stateMutability": "nonpayable",
      "type": "function"
    },
    {
      "inputs": [
        {
          "internalType": "bytes32",
          "name": "role",
          "type": "bytes32"
        },
        {
          "internalType": "address",
          "name": "account",
          "type": "address"
        }
      ],
      "name": "hasRole",
      "outputs": [
        {
          "internalType": "bool",
          "name": "",
          "type": "bool"
        }
      ],
      "stateMutability": "view",
      "type": "function",
      "constant": true
    },
    {
      "inputs": [
        {
          "internalType": "bytes32",
          "name": "role",
          "type": "bytes32"
        },
        {
          "internalType": "address",
          "name": "account",
          "type": "address"
        }
      ],
      "name": "renounceRole",
      "outputs": [],
      "stateMutability": "nonpayable",
      "type": "function"
    },
    {
      "inputs": [
        {
          "internalType": "bytes32",
          "name": "role",
          "type": "bytes32"
        },
        {
          "internalType": "address",
          "name": "account",
          "type": "address"
        }
      ],
      "name": "revokeRole",
      "outputs": [],
      "stateMutability": "nonpayable",
      "type": "function"
    },
    {
      "inputs": [
        {
          "internalType": "bytes4",
          "name": "interfaceId",
          "type": "bytes4"
        }
      ],
      "name": "supportsInterface",
      "outputs": [
        {
          "internalType": "bool",
          "name": "",
          "type": "bool"
        }
      ],
      "stateMutability": "view",
      "type": "function",
      "constant": true
    },
    {
      "inputs": [],
      "name": "totalCapital",
      "outputs": [
        {
          "internalType": "uint256",
          "name": "",
          "type": "uint256"
        }
      ],
      "stateMutability": "view",
      "type": "function",
      "constant": true
    },
    {
      "inputs": [
        {
          "internalType": "address",
          "name": "_ctmAddress",
          "type": "address"
        }
      ],
      "name": "setCompanyTreasuryManagerAddress",
      "outputs": [],
      "stateMutability": "nonpayable",
      "type": "function"
    },
    {
      "inputs": [
        {
          "internalType": "address",
          "name": "account",
          "type": "address"
        }
      ],
      "name": "getSharesPercentage",
      "outputs": [
        {
          "internalType": "uint256",
          "name": "",
          "type": "uint256"
        }
      ],
      "stateMutability": "view",
      "type": "function",
      "constant": true
    },
    {
      "inputs": [
        {
          "internalType": "address",
          "name": "_candidate",
          "type": "address"
        },
        {
          "internalType": "uint256",
          "name": "_shareCapitalProposed",
          "type": "uint256"
        },
        {
          "internalType": "address[]",
          "name": "_approvers",
          "type": "address[]"
        }
      ],
      "name": "proposeBoardMember",
      "outputs": [],
      "stateMutability": "nonpayable",
      "type": "function"
    },
    {
      "inputs": [
        {
          "internalType": "address",
          "name": "_candidate",
          "type": "address"
        },
        {
          "internalType": "uint256",
          "name": "_contributedAmount",
          "type": "uint256"
        }
      ],
      "name": "activateBoardMemberByTreasury",
      "outputs": [],
      "stateMutability": "nonpayable",
      "type": "function"
    },
    {
      "inputs": [
        {
          "internalType": "address",
          "name": "_candidate",
          "type": "address"
        }
      ],
      "name": "getProposedShareCapital",
      "outputs": [
        {
          "internalType": "uint256",
          "name": "",
          "type": "uint256"
        }
      ],
      "stateMutability": "view",
      "type": "function",
      "constant": true
    },
    {
      "inputs": [
        {
          "internalType": "address",
          "name": "_accountToRemove",
          "type": "address"
        },
        {
          "internalType": "address[]",
          "name": "_approvers",
          "type": "address[]"
        }
      ],
      "name": "removeBoardMember",
      "outputs": [],
      "stateMutability": "nonpayable",
      "type": "function"
    },
    {
      "inputs": [
        {
          "internalType": "bytes32",
          "name": "role",
          "type": "bytes32"
        },
        {
          "internalType": "address",
          "name": "account",
          "type": "address"
        },
        {
          "internalType": "address[]",
          "name": "approvers",
          "type": "address[]"
        }
      ],
      "name": "grantRoleByBoard",
      "outputs": [],
      "stateMutability": "nonpayable",
      "type": "function"
    },
    {
      "inputs": [
        {
          "internalType": "bytes32",
          "name": "role",
          "type": "bytes32"
        },
        {
          "internalType": "address",
          "name": "account",
          "type": "address"
        },
        {
          "internalType": "address[]",
          "name": "approvers",
          "type": "address[]"
        }
      ],
      "name": "revokeRoleByBoard",
      "outputs": [],
      "stateMutability": "nonpayable",
      "type": "function"
    },
    {
      "inputs": [
        {
          "internalType": "address",
          "name": "account",
          "type": "address"
        }
      ],
      "name": "grantWarehouseManager",
      "outputs": [],
      "stateMutability": "nonpayable",
      "type": "function"
    },
    {
      "inputs": [
        {
          "internalType": "address",
          "name": "account",
          "type": "address"
        }
      ],
      "name": "revokeWarehouseManager",
      "outputs": [],
      "stateMutability": "nonpayable",
      "type": "function"
    },
    {
      "inputs": [
        {
          "internalType": "address",
          "name": "account",
          "type": "address"
        }
      ],
      "name": "grantStoreManager",
      "outputs": [],
      "stateMutability": "nonpayable",
      "type": "function"
    },
    {
      "inputs": [
        {
          "internalType": "address",
          "name": "account",
          "type": "address"
        }
      ],
      "name": "revokeStoreManager",
      "outputs": [],
      "stateMutability": "nonpayable",
      "type": "function"
    },
    {
      "inputs": [],
      "name": "getBoardMembers",
      "outputs": [
        {
          "internalType": "address[]",
          "name": "",
          "type": "address[]"
        }
      ],
      "stateMutability": "view",
      "type": "function",
      "constant": true
    },
    {
      "inputs": [
        {
          "internalType": "address",
          "name": "member",
          "type": "address"
        }
      ],
      "name": "getBoardMemberInfo",
      "outputs": [
        {
          "components": [
            {
              "internalType": "uint256",
              "name": "shareCapitalProposed",
              "type": "uint256"
            },
            {
              "internalType": "uint256",
              "name": "shareCapitalContributed",
              "type": "uint256"
            },
            {
              "internalType": "enum RoleManagement.BoardMemberStatus",
              "name": "status",
              "type": "uint8"
            }
          ],
          "internalType": "struct RoleManagement.BoardMember",
          "name": "",
          "type": "tuple"
        }
      ],
      "stateMutability": "view",
      "type": "function",
      "constant": true
    },
    {
      "inputs": [],
      "name": "BOARD_ROLE_ID",
      "outputs": [
        {
          "internalType": "bytes32",
          "name": "",
          "type": "bytes32"
        }
      ],
      "stateMutability": "pure",
      "type": "function",
      "constant": true
    },
    {
      "inputs": [],
      "name": "WAREHOUSE_DIRECTOR_ROLE_ID",
      "outputs": [
        {
          "internalType": "bytes32",
          "name": "",
          "type": "bytes32"
        }
      ],
      "stateMutability": "pure",
      "type": "function",
      "constant": true
    },
    {
      "inputs": [],
      "name": "STORE_DIRECTOR_ROLE_ID",
      "outputs": [
        {
          "internalType": "bytes32",
          "name": "",
          "type": "bytes32"
        }
      ],
      "stateMutability": "pure",
      "type": "function",
      "constant": true
    },
    {
      "inputs": [],
      "name": "FINANCE_DIRECTOR_ROLE_ID",
      "outputs": [
        {
          "internalType": "bytes32",
          "name": "",
          "type": "bytes32"
        }
      ],
      "stateMutability": "pure",
      "type": "function",
      "constant": true
    },
    {
      "inputs": [],
      "name": "WAREHOUSE_MANAGER_ROLE_ID",
      "outputs": [
        {
          "internalType": "bytes32",
          "name": "",
          "type": "bytes32"
        }
      ],
      "stateMutability": "pure",
      "type": "function",
      "constant": true
    },
    {
      "inputs": [],
      "name": "STORE_MANAGER_ROLE_ID",
      "outputs": [
        {
          "internalType": "bytes32",
          "name": "",
          "type": "bytes32"
        }
      ],
      "stateMutability": "pure",
      "type": "function",
      "constant": true
    },
    {
      "inputs": [],
      "name": "SUPPLIER_ROLE_ID",
      "outputs": [
        {
          "internalType": "bytes32",
          "name": "",
          "type": "bytes32"
        }
      ],
      "stateMutability": "pure",
      "type": "function",
      "constant": true
    },
    {
      "inputs": [],
      "name": "DEFAULT_ADMIN_ROLE_ID",
      "outputs": [
        {
          "internalType": "bytes32",
          "name": "",
          "type": "bytes32"
        }
      ],
      "stateMutability": "pure",
      "type": "function",
      "constant": true
    }
  ],
  "bytecode": "0x60806040523480156200001157600080fd5b50620000276000801b336200024b60201b60201c565b600033905060006803cb71f51fc55800009050600073ffffffffffffffffffffffffffffffffffffffff168273ffffffffffffffffffffffffffffffffffffffff161415620000ad576040517f08c379a0000000000000000000000000000000000000000000000000000000008152600401620000a49062000427565b60405180910390fd5b6000600160008473ffffffffffffffffffffffffffffffffffffffff1673ffffffffffffffffffffffffffffffffffffffff168152602001908152602001600020905081816000018190555081816001018190555060028160020160006101000a81548160ff0219169083600381111562000151577f4e487b7100000000000000000000000000000000000000000000000000000000600052602160045260246000fd5b02179055506002839080600181540180825580915050600190039060005260206000200160009091909190916101000a81548173ffffffffffffffffffffffffffffffffffffffff021916908373ffffffffffffffffffffffffffffffffffffffff160217905550620001eb7f0182a37f4cfe4a11c9cc13af6a96350bc084bedfd41df0928670dbabcfe3aea1846200024b60201b60201c565b816003819055508273ffffffffffffffffffffffffffffffffffffffff167fed4124503cbccb17ea26c625be47636abac278557bbb45442c60820f6b9dda4a836040516200023a919062000449565b60405180910390a250505062000481565b6200025d82826200033c60201b60201c565b6200033857600160008084815260200190815260200160002060000160008373ffffffffffffffffffffffffffffffffffffffff1673ffffffffffffffffffffffffffffffffffffffff16815260200190815260200160002060006101000a81548160ff021916908315150217905550620002dd620003a660201b60201c565b73ffffffffffffffffffffffffffffffffffffffff168173ffffffffffffffffffffffffffffffffffffffff16837f2f8788117e7eff1d82e926ec794901d17c78024a50270940304540a733656f0d60405160405180910390a45b5050565b600080600084815260200190815260200160002060000160008373ffffffffffffffffffffffffffffffffffffffff1673ffffffffffffffffffffffffffffffffffffffff16815260200190815260200160002060009054906101000a900460ff16905092915050565b600033905090565b6000620003bd60298362000466565b91507f524d3a2044696120636869206e67756f6920747269656e206b686169206b686f60008301527f6e6720686f70206c6500000000000000000000000000000000000000000000006020830152604082019050919050565b620004218162000477565b82525050565b600060208201905081810360008301526200044281620003ae565b9050919050565b600060208201905062000460600083018462000416565b92915050565b600082825260208201905092915050565b6000819050919050565b61497780620004916000396000f3fe608060405234801561001057600080fd5b50600436106102485760003560e01c806387116bb61161013b578063be9d3db3116100b8578063e3fcbac11161007c578063e3fcbac1146106d1578063edd4ea9a14610701578063f2babe281461071f578063f83ea09f1461073d578063fc0dabb11461075957610248565b8063be9d3db314610617578063bff1378514610647578063d547741f14610679578063ddf62a6414610695578063de131bec146106b357610248565b8063a217fddf116100ff578063a217fddf14610581578063a29508fc1461059f578063a64f6300146105bd578063ad4ed497146105db578063ae1be5c8146105f957610248565b806387116bb6146104db5780638b94a8e2146104f9578063912410051461051757806391d14854146105335780639a8d3cde1461056357610248565b8063383032ea116101c9578063735d94db1161018d578063735d94db14610439578063752a7c86146104695780637849a5d014610485578063800ac75f146104a1578063821c3a14146104bd57610248565b8063383032ea146103935780633fb94983146103b15780634bbc8587146103cd5780636250e056146103eb57806366f1114f1461040957610248565b806326c527431161021057806326c527431461030557806327f0934f14610321578063294059ba1461033f5780632f2ff15d1461035b57806336568abe1461037757610248565b806301ffc9a71461024d57806305936a741461027d57806305b11d37146102995780631f107798146102b7578063248a9ca3146102d5575b600080fd5b610267600480360381019061026291906135e1565b610775565b6040516102749190614124565b60405180910390f35b610297600480360381019061029291906133f5565b6107ef565b005b6102a1610885565b6040516102ae919061413f565b60405180910390f35b6102bf6108a9565b6040516102cc919061413f565b60405180910390f35b6102ef60048036038101906102ea9190613515565b6108cd565b6040516102fc919061413f565b60405180910390f35b61031f600480360381019061031a919061357a565b6108ec565b005b610329610c15565b604051610336919061413f565b60405180910390f35b6103596004803603810190610354919061341e565b610c3d565b005b6103756004803603810190610370919061353e565b611248565b005b610391600480360381019061038c919061353e565b611269565b005b61039b6112ec565b6040516103a89190614497565b60405180910390f35b6103cb60048036038101906103c691906134ae565b6112f2565b005b6103d56117f5565b6040516103e2919061413f565b60405180910390f35b6103f361181d565b604051610400919061413f565b60405180910390f35b610423600480360381019061041e91906133f5565b611841565b604051610430919061447c565b60405180910390f35b610453600480360381019061044e919061360a565b611935565b60405161046091906140e7565b60405180910390f35b610483600480360381019061047e91906133f5565b611974565b005b61049f600480360381019061049a919061357a565b611a0a565b005b6104bb60048036038101906104b691906133f5565b611d33565b005b6104c5611dc9565b6040516104d291906140e7565b60405180910390f35b6104e3611def565b6040516104f0919061413f565b60405180910390f35b610501611e17565b60405161050e919061413f565b60405180910390f35b610531600480360381019061052c91906133f5565b611e3b565b005b61054d6004803603810190610548919061353e565b611ed1565b60405161055a9190614124565b60405180910390f35b61056b611f3b565b604051610578919061413f565b60405180910390f35b610589611f46565b604051610596919061413f565b60405180910390f35b6105a7611f4d565b6040516105b4919061413f565b60405180910390f35b6105c5611f71565b6040516105d2919061413f565b60405180910390f35b6105e3611f99565b6040516105f0919061413f565b60405180910390f35b610601611fbd565b60405161060e919061413f565b60405180910390f35b610631600480360381019061062c91906133f5565b611fe1565b60405161063e9190614497565b60405180910390f35b610661600480360381019061065c91906133f5565b61229f565b604051610670939291906144b2565b60405180910390f35b610693600480360381019061068e919061353e565b6122d6565b005b61069d6122f7565b6040516106aa919061413f565b60405180910390f35b6106bb61231f565b6040516106c8919061413f565b60405180910390f35b6106eb60048036038101906106e691906133f5565b612347565b6040516106f89190614497565b60405180910390f35b61070961248d565b6040516107169190614102565b60405180910390f35b61072761251b565b604051610734919061413f565b60405180910390f35b61075760048036038101906107529190613472565b612543565b005b610773600480360381019061076e91906133f5565b612942565b005b60007f7965db0b000000000000000000000000000000000000000000000000000000007bffffffffffffffffffffffffffffffffffffffffffffffffffffffff1916827bffffffffffffffffffffffffffffffffffffffffffffffffffffffff191614806107e857506107e782612a85565b5b9050919050565b6108197f3e9ee691b81ce40c5a04b318fa7b05d5216de50b16764207a4ac8753362d20bc33611ed1565b610858576040517f08c379a000000000000000000000000000000000000000000000000000000000815260040161084f9061431c565b60405180910390fd5b6108827f03ce45385a6da0f9c94bd522d1e76071af055dd49cf9bcd2dd1979a114f0354382612aef565b50565b7f0182a37f4cfe4a11c9cc13af6a96350bc084bedfd41df0928670dbabcfe3aea181565b7f03ce45385a6da0f9c94bd522d1e76071af055dd49cf9bcd2dd1979a114f0354381565b6000806000838152602001908152602001600020600101549050919050565b60026003811115610926577f4e487b7100000000000000000000000000000000000000000000000000000000600052602160045260246000fd5b600160003373ffffffffffffffffffffffffffffffffffffffff1673ffffffffffffffffffffffffffffffffffffffff16815260200190815260200160002060020160009054906101000a900460ff1660038111156109ae577f4e487b7100000000000000000000000000000000000000000000000000000000600052602160045260246000fd5b1480156109e157506109e07f0182a37f4cfe4a11c9cc13af6a96350bc084bedfd41df0928670dbabcfe3aea133611ed1565b5b610a20576040517f08c379a0000000000000000000000000000000000000000000000000000000008152600401610a179061437c565b60405180910390fd5b7fd283d0fb22ee0804ca51c2a4749bdad99cfb7b348bd92a8833753d542c46c50f831480610a6d57507f3e9ee691b81ce40c5a04b318fa7b05d5216de50b16764207a4ac8753362d20bc83145b80610a9757507f42340fd1b40523657f7374ab2d72653f7ae00df11e5da261a68abd1d0f0aad1583145b80610ac157507fd1ae8bbdabd60d63e418b84f5ad6f9cba90092c9816d7724d85f0d4e4bea2c6083145b610b00576040517f08c379a0000000000000000000000000000000000000000000000000000000008152600401610af7906142fc565b60405180910390fd5b600073ffffffffffffffffffffffffffffffffffffffff168273ffffffffffffffffffffffffffffffffffffffff161415610b70576040517f08c379a0000000000000000000000000000000000000000000000000000000008152600401610b679061425c565b60405180910390fd5b6000815111610bb4576040517f08c379a0000000000000000000000000000000000000000000000000000000008152600401610bab906141dc565b60405180910390fd5b6000610bbf82612bd0565b90506113888111610c05576040517f08c379a0000000000000000000000000000000000000000000000000000000008152600401610bfc9061445c565b60405180910390fd5b610c0f8484612aef565b50505050565b60007f0182a37f4cfe4a11c9cc13af6a96350bc084bedfd41df0928670dbabcfe3aea1905090565b60026003811115610c77577f4e487b7100000000000000000000000000000000000000000000000000000000600052602160045260246000fd5b600160003373ffffffffffffffffffffffffffffffffffffffff1673ffffffffffffffffffffffffffffffffffffffff16815260200190815260200160002060020160009054906101000a900460ff166003811115610cff577f4e487b7100000000000000000000000000000000000000000000000000000000600052602160045260246000fd5b148015610d325750610d317f0182a37f4cfe4a11c9cc13af6a96350bc084bedfd41df0928670dbabcfe3aea133611ed1565b5b610d71576040517f08c379a0000000000000000000000000000000000000000000000000000000008152600401610d689061437c565b60405180910390fd5b60026003811115610dab577f4e487b7100000000000000000000000000000000000000000000000000000000600052602160045260246000fd5b600160008473ffffffffffffffffffffffffffffffffffffffff1673ffffffffffffffffffffffffffffffffffffffff16815260200190815260200160002060020160009054906101000a900460ff166003811115610e33577f4e487b7100000000000000000000000000000000000000000000000000000000600052602160045260246000fd5b14610e73576040517f08c379a0000000000000000000000000000000000000000000000000000000008152600401610e6a9061439c565b60405180910390fd5b6000610e7e82612bd0565b90506113888111610ec4576040517f08c379a0000000000000000000000000000000000000000000000000000000008152600401610ebb9061429c565b60405180910390fd5b600160008473ffffffffffffffffffffffffffffffffffffffff1673ffffffffffffffffffffffffffffffffffffffff1681526020019081526020016000206001015460036000828254610f189190614687565b92505081905550610f497f0182a37f4cfe4a11c9cc13af6a96350bc084bedfd41df0928670dbabcfe3aea184612aef565b6003600160008573ffffffffffffffffffffffffffffffffffffffff1673ffffffffffffffffffffffffffffffffffffffff16815260200190815260200160002060020160006101000a81548160ff02191690836003811115610fd5577f4e487b7100000000000000000000000000000000000000000000000000000000600052602160045260246000fd5b021790555060005b6002805490508110156111ff578373ffffffffffffffffffffffffffffffffffffffff166002828154811061103b577f4e487b7100000000000000000000000000000000000000000000000000000000600052603260045260246000fd5b9060005260206000200160009054906101000a900473ffffffffffffffffffffffffffffffffffffffff1673ffffffffffffffffffffffffffffffffffffffff1614156111ec57600260016002805490506110969190614687565b815481106110cd577f4e487b7100000000000000000000000000000000000000000000000000000000600052603260045260246000fd5b9060005260206000200160009054906101000a900473ffffffffffffffffffffffffffffffffffffffff1660028281548110611132577f4e487b7100000000000000000000000000000000000000000000000000000000600052603260045260246000fd5b9060005260206000200160006101000a81548173ffffffffffffffffffffffffffffffffffffffff021916908373ffffffffffffffffffffffffffffffffffffffff16021790555060028054806111b2577f4e487b7100000000000000000000000000000000000000000000000000000000600052603160045260246000fd5b6001900381819060005260206000200160006101000a81549073ffffffffffffffffffffffffffffffffffffffff021916905590556111ff565b80806111f7906147bb565b915050610fdd565b508273ffffffffffffffffffffffffffffffffffffffff167f5059b541f12100245fc1e0afc5a897e4f2b2ac151e48752188c24421eeb9750b60405160405180910390a2505050565b611251826108cd565b61125a81612e0a565b6112648383612e1e565b505050565b611271612efe565b73ffffffffffffffffffffffffffffffffffffffff168173ffffffffffffffffffffffffffffffffffffffff16146112de576040517f08c379a00000000000000000000000000000000000000000000000000000000081526004016112d59061443c565b60405180910390fd5b6112e88282612aef565b5050565b60035481565b6002600381111561132c577f4e487b7100000000000000000000000000000000000000000000000000000000600052602160045260246000fd5b600160003373ffffffffffffffffffffffffffffffffffffffff1673ffffffffffffffffffffffffffffffffffffffff16815260200190815260200160002060020160009054906101000a900460ff1660038111156113b4577f4e487b7100000000000000000000000000000000000000000000000000000000600052602160045260246000fd5b1480156113e757506113e67f0182a37f4cfe4a11c9cc13af6a96350bc084bedfd41df0928670dbabcfe3aea133611ed1565b5b611426576040517f08c379a000000000000000000000000000000000000000000000000000000000815260040161141d9061437c565b60405180910390fd5b600073ffffffffffffffffffffffffffffffffffffffff168373ffffffffffffffffffffffffffffffffffffffff161415611496576040517f08c379a000000000000000000000000000000000000000000000000000000000815260040161148d906142dc565b60405180910390fd5b6000600160008573ffffffffffffffffffffffffffffffffffffffff1673ffffffffffffffffffffffffffffffffffffffff168152602001908152602001600020905060006003811115611513577f4e487b7100000000000000000000000000000000000000000000000000000000600052602160045260246000fd5b8160020160009054906101000a900460ff16600381111561155d577f4e487b7100000000000000000000000000000000000000000000000000000000600052602160045260246000fd5b1461159d576040517f08c379a00000000000000000000000000000000000000000000000000000000081526004016115949061441c565b60405180910390fd5b600083116115e0576040517f08c379a00000000000000000000000000000000000000000000000000000000081526004016115d79061423c565b60405180910390fd5b6000825111611624576040517f08c379a000000000000000000000000000000000000000000000000000000000815260040161161b906143bc565b60405180910390fd5b60005b82518110156116f2573373ffffffffffffffffffffffffffffffffffffffff16838281518110611680577f4e487b7100000000000000000000000000000000000000000000000000000000600052603260045260246000fd5b602002602001015173ffffffffffffffffffffffffffffffffffffffff1614156116df576040517f08c379a00000000000000000000000000000000000000000000000000000000081526004016116d6906143dc565b60405180910390fd5b80806116ea906147bb565b915050611627565b5060006116fe83612bd0565b90506113888111611744576040517f08c379a000000000000000000000000000000000000000000000000000000000815260040161173b906141fc565b60405180910390fd5b83826000018190555060018260020160006101000a81548160ff0219169083600381111561179b577f4e487b7100000000000000000000000000000000000000000000000000000000600052602160045260246000fd5b02179055508473ffffffffffffffffffffffffffffffffffffffff167f057b33cd829daf4c6abec68bb31f2afeeb2836f3ca471b6bb489889ce0f55414856040516117e69190614497565b60405180910390a25050505050565b60007fd283d0fb22ee0804ca51c2a4749bdad99cfb7b348bd92a8833753d542c46c50f905090565b7f7a27847106d9de274bc7cc402b56b28792b17910251f705d7490179d093a8c3381565b6118496132b2565b600160008373ffffffffffffffffffffffffffffffffffffffff1673ffffffffffffffffffffffffffffffffffffffff16815260200190815260200160002060405180606001604052908160008201548152602001600182015481526020016002820160009054906101000a900460ff1660038111156118f2577f4e487b7100000000000000000000000000000000000000000000000000000000600052602160045260246000fd5b600381111561192a577f4e487b7100000000000000000000000000000000000000000000000000000000600052602160045260246000fd5b815250509050919050565b6002818154811061194557600080fd5b906000526020600020016000915054906101000a900473ffffffffffffffffffffffffffffffffffffffff1681565b61199e7fd283d0fb22ee0804ca51c2a4749bdad99cfb7b348bd92a8833753d542c46c50f33611ed1565b6119dd576040517f08c379a00000000000000000000000000000000000000000000000000000000081526004016119d49061421c565b60405180910390fd5b611a077f7a27847106d9de274bc7cc402b56b28792b17910251f705d7490179d093a8c3382612e1e565b50565b60026003811115611a44577f4e487b7100000000000000000000000000000000000000000000000000000000600052602160045260246000fd5b600160003373ffffffffffffffffffffffffffffffffffffffff1673ffffffffffffffffffffffffffffffffffffffff16815260200190815260200160002060020160009054906101000a900460ff166003811115611acc577f4e487b7100000000000000000000000000000000000000000000000000000000600052602160045260246000fd5b148015611aff5750611afe7f0182a37f4cfe4a11c9cc13af6a96350bc084bedfd41df0928670dbabcfe3aea133611ed1565b5b611b3e576040517f08c379a0000000000000000000000000000000000000000000000000000000008152600401611b359061437c565b60405180910390fd5b7fd283d0fb22ee0804ca51c2a4749bdad99cfb7b348bd92a8833753d542c46c50f831480611b8b57507f3e9ee691b81ce40c5a04b318fa7b05d5216de50b16764207a4ac8753362d20bc83145b80611bb557507f42340fd1b40523657f7374ab2d72653f7ae00df11e5da261a68abd1d0f0aad1583145b80611bdf57507fd1ae8bbdabd60d63e418b84f5ad6f9cba90092c9816d7724d85f0d4e4bea2c6083145b611c1e576040517f08c379a0000000000000000000000000000000000000000000000000000000008152600401611c15906142fc565b60405180910390fd5b600073ffffffffffffffffffffffffffffffffffffffff168273ffffffffffffffffffffffffffffffffffffffff161415611c8e576040517f08c379a0000000000000000000000000000000000000000000000000000000008152600401611c859061425c565b60405180910390fd5b6000815111611cd2576040517f08c379a0000000000000000000000000000000000000000000000000000000008152600401611cc9906141dc565b60405180910390fd5b6000611cdd82612bd0565b90506113888111611d23576040517f08c379a0000000000000000000000000000000000000000000000000000000008152600401611d1a9061445c565b60405180910390fd5b611d2d8484612e1e565b50505050565b611d5d7f3e9ee691b81ce40c5a04b318fa7b05d5216de50b16764207a4ac8753362d20bc33611ed1565b611d9c576040517f08c379a0000000000000000000000000000000000000000000000000000000008152600401611d939061431c565b60405180910390fd5b611dc67f03ce45385a6da0f9c94bd522d1e76071af055dd49cf9bcd2dd1979a114f0354382612e1e565b50565b600460009054906101000a900473ffffffffffffffffffffffffffffffffffffffff1681565b60007f42340fd1b40523657f7374ab2d72653f7ae00df11e5da261a68abd1d0f0aad15905090565b7f42340fd1b40523657f7374ab2d72653f7ae00df11e5da261a68abd1d0f0aad1581565b611e657fd283d0fb22ee0804ca51c2a4749bdad99cfb7b348bd92a8833753d542c46c50f33611ed1565b611ea4576040517f08c379a0000000000000000000000000000000000000000000000000000000008152600401611e9b9061421c565b60405180910390fd5b611ece7f7a27847106d9de274bc7cc402b56b28792b17910251f705d7490179d093a8c3382612aef565b50565b600080600084815260200190815260200160002060000160008373ffffffffffffffffffffffffffffffffffffffff1673ffffffffffffffffffffffffffffffffffffffff16815260200190815260200160002060009054906101000a900460ff16905092915050565b60008060001b905090565b6000801b81565b7fd1ae8bbdabd60d63e418b84f5ad6f9cba90092c9816d7724d85f0d4e4bea2c6081565b60007f3e9ee691b81ce40c5a04b318fa7b05d5216de50b16764207a4ac8753362d20bc905090565b7fd283d0fb22ee0804ca51c2a4749bdad99cfb7b348bd92a8833753d542c46c50f81565b7f3e9ee691b81ce40c5a04b318fa7b05d5216de50b16764207a4ac8753362d20bc81565b6000600460009054906101000a900473ffffffffffffffffffffffffffffffffffffffff1673ffffffffffffffffffffffffffffffffffffffff163373ffffffffffffffffffffffffffffffffffffffff16148061204857506120476000801b33611ed1565b5b80612144575060026003811115612088577f4e487b7100000000000000000000000000000000000000000000000000000000600052602160045260246000fd5b600160003373ffffffffffffffffffffffffffffffffffffffff1673ffffffffffffffffffffffffffffffffffffffff16815260200190815260200160002060020160009054906101000a900460ff166003811115612110577f4e487b7100000000000000000000000000000000000000000000000000000000600052602160045260246000fd5b14801561214357506121427f0182a37f4cfe4a11c9cc13af6a96350bc084bedfd41df0928670dbabcfe3aea133611ed1565b5b5b612183576040517f08c379a000000000000000000000000000000000000000000000000000000000815260040161217a906141bc565b60405180910390fd5b600160038111156121bd577f4e487b7100000000000000000000000000000000000000000000000000000000600052602160045260246000fd5b600160008473ffffffffffffffffffffffffffffffffffffffff1673ffffffffffffffffffffffffffffffffffffffff16815260200190815260200160002060020160009054906101000a900460ff166003811115612245577f4e487b7100000000000000000000000000000000000000000000000000000000600052602160045260246000fd5b141561229557600160008373ffffffffffffffffffffffffffffffffffffffff1673ffffffffffffffffffffffffffffffffffffffff16815260200190815260200160002060000154905061229a565b600090505b919050565b60016020528060005260406000206000915090508060000154908060010154908060020160009054906101000a900460ff16905083565b6122df826108cd565b6122e881612e0a565b6122f28383612aef565b505050565b60007f03ce45385a6da0f9c94bd522d1e76071af055dd49cf9bcd2dd1979a114f03543905090565b60007fd1ae8bbdabd60d63e418b84f5ad6f9cba90092c9816d7724d85f0d4e4bea2c60905090565b600060026003811115612383577f4e487b7100000000000000000000000000000000000000000000000000000000600052602160045260246000fd5b600160008473ffffffffffffffffffffffffffffffffffffffff1673ffffffffffffffffffffffffffffffffffffffff16815260200190815260200160002060020160009054906101000a900460ff16600381111561240b577f4e487b7100000000000000000000000000000000000000000000000000000000600052602160045260246000fd5b14158061241a57506000600354145b156124285760009050612488565b600354612710600160008573ffffffffffffffffffffffffffffffffffffffff1673ffffffffffffffffffffffffffffffffffffffff1681526020019081526020016000206001015461247b919061462d565b61248591906145fc565b90505b919050565b6060600280548060200260200160405190810160405280929190818152602001828054801561251157602002820191906000526020600020905b8160009054906101000a900473ffffffffffffffffffffffffffffffffffffffff1673ffffffffffffffffffffffffffffffffffffffff16815260200190600101908083116124c7575b5050505050905090565b60007f7a27847106d9de274bc7cc402b56b28792b17910251f705d7490179d093a8c33905090565b600460009054906101000a900473ffffffffffffffffffffffffffffffffffffffff1673ffffffffffffffffffffffffffffffffffffffff163373ffffffffffffffffffffffffffffffffffffffff16146125d3576040517f08c379a00000000000000000000000000000000000000000000000000000000081526004016125ca9061419c565b60405180910390fd5b6000600160008473ffffffffffffffffffffffffffffffffffffffff1673ffffffffffffffffffffffffffffffffffffffff168152602001908152602001600020905060016003811115612650577f4e487b7100000000000000000000000000000000000000000000000000000000600052602160045260246000fd5b8160020160009054906101000a900460ff16600381111561269a577f4e487b7100000000000000000000000000000000000000000000000000000000600052602160045260246000fd5b146126da576040517f08c379a00000000000000000000000000000000000000000000000000000000081526004016126d19061427c565b60405180910390fd5b80600001548214612720576040517f08c379a00000000000000000000000000000000000000000000000000000000081526004016127179061435c565b60405180910390fd5b60028160020160006101000a81548160ff0219169083600381111561276e577f4e487b7100000000000000000000000000000000000000000000000000000000600052602160045260246000fd5b02179055508181600101819055506000805b600280549050811015612841578473ffffffffffffffffffffffffffffffffffffffff16600282815481106127de577f4e487b7100000000000000000000000000000000000000000000000000000000600052603260045260246000fd5b9060005260206000200160009054906101000a900473ffffffffffffffffffffffffffffffffffffffff1673ffffffffffffffffffffffffffffffffffffffff16141561282e5760019150612841565b8080612839906147bb565b915050612780565b50806128ab576002849080600181540180825580915050600190039060005260206000200160009091909190916101000a81548173ffffffffffffffffffffffffffffffffffffffff021916908373ffffffffffffffffffffffffffffffffffffffff1602179055505b6128d57f0182a37f4cfe4a11c9cc13af6a96350bc084bedfd41df0928670dbabcfe3aea185612e1e565b82600360008282546128e791906145a6565b925050819055508373ffffffffffffffffffffffffffffffffffffffff167fed4124503cbccb17ea26c625be47636abac278557bbb45442c60820f6b9dda4a846040516129349190614497565b60405180910390a250505050565b61294f6000801b33611ed1565b61298e576040517f08c379a0000000000000000000000000000000000000000000000000000000008152600401612985906143fc565b60405180910390fd5b600073ffffffffffffffffffffffffffffffffffffffff168173ffffffffffffffffffffffffffffffffffffffff1614156129fe576040517f08c379a00000000000000000000000000000000000000000000000000000000081526004016129f59061433c565b60405180910390fd5b80600460006101000a81548173ffffffffffffffffffffffffffffffffffffffff021916908373ffffffffffffffffffffffffffffffffffffffff1602179055508073ffffffffffffffffffffffffffffffffffffffff167f2420d7da1ad6c0ecc0c86e32b26e9a939959873f39778c4a2243f2ffcb7c644560405160405180910390a250565b60007f01ffc9a7000000000000000000000000000000000000000000000000000000007bffffffffffffffffffffffffffffffffffffffffffffffffffffffff1916827bffffffffffffffffffffffffffffffffffffffffffffffffffffffff1916149050919050565b612af98282611ed1565b15612bcc57600080600084815260200190815260200160002060000160008373ffffffffffffffffffffffffffffffffffffffff1673ffffffffffffffffffffffffffffffffffffffff16815260200190815260200160002060006101000a81548160ff021916908315150217905550612b71612efe565b73ffffffffffffffffffffffffffffffffffffffff168173ffffffffffffffffffffffffffffffffffffffff16837ff6391f5c32d9c69d2a47ea670b442974b53935d1edc7fd64eb21e047a839171b60405160405180910390a45b5050565b6000806000905060005b8351811015612e005760026003811115612c1d577f4e487b7100000000000000000000000000000000000000000000000000000000600052602160045260246000fd5b60016000868481518110612c5a577f4e487b7100000000000000000000000000000000000000000000000000000000600052603260045260246000fd5b602002602001015173ffffffffffffffffffffffffffffffffffffffff1673ffffffffffffffffffffffffffffffffffffffff16815260200190815260200160002060020160009054906101000a900460ff166003811115612ce5577f4e487b7100000000000000000000000000000000000000000000000000000000600052602160045260246000fd5b148015612d585750612d577f0182a37f4cfe4a11c9cc13af6a96350bc084bedfd41df0928670dbabcfe3aea1858381518110612d4a577f4e487b7100000000000000000000000000000000000000000000000000000000600052603260045260246000fd5b6020026020010151611ed1565b5b612d97576040517f08c379a0000000000000000000000000000000000000000000000000000000008152600401612d8e906142bc565b60405180910390fd5b612de0848281518110612dd3577f4e487b7100000000000000000000000000000000000000000000000000000000600052603260045260246000fd5b6020026020010151612347565b82612deb91906145a6565b91508080612df8906147bb565b915050612bda565b5080915050919050565b612e1b81612e16612efe565b612f06565b50565b612e288282611ed1565b612efa57600160008084815260200190815260200160002060000160008373ffffffffffffffffffffffffffffffffffffffff1673ffffffffffffffffffffffffffffffffffffffff16815260200190815260200160002060006101000a81548160ff021916908315150217905550612e9f612efe565b73ffffffffffffffffffffffffffffffffffffffff168173ffffffffffffffffffffffffffffffffffffffff16837f2f8788117e7eff1d82e926ec794901d17c78024a50270940304540a733656f0d60405160405180910390a45b5050565b600033905090565b612f108282611ed1565b612f8757612f1d81612f8b565b612f2b8360001c6020612fb8565b604051602001612f3c9291906140ad565b6040516020818303038152906040526040517f08c379a0000000000000000000000000000000000000000000000000000000008152600401612f7e919061415a565b60405180910390fd5b5050565b6060612fb18273ffffffffffffffffffffffffffffffffffffffff16601460ff16612fb8565b9050919050565b606060006002836002612fcb919061462d565b612fd591906145a6565b67ffffffffffffffff811115613014577f4e487b7100000000000000000000000000000000000000000000000000000000600052604160045260246000fd5b6040519080825280601f01601f1916602001820160405280156130465781602001600182028036833780820191505090505b5090507f3000000000000000000000000000000000000000000000000000000000000000816000815181106130a4577f4e487b7100000000000000000000000000000000000000000000000000000000600052603260045260246000fd5b60200101907effffffffffffffffffffffffffffffffffffffffffffffffffffffffffffff1916908160001a9053507f78000000000000000000000000000000000000000000000000000000000000008160018151811061312e577f4e487b7100000000000000000000000000000000000000000000000000000000600052603260045260246000fd5b60200101907effffffffffffffffffffffffffffffffffffffffffffffffffffffffffffff1916908160001a9053506000600184600261316e919061462d565b61317891906145a6565b90505b6001811115613264577f3031323334353637383961626364656600000000000000000000000000000000600f8616601081106131e0577f4e487b7100000000000000000000000000000000000000000000000000000000600052603260045260246000fd5b1a60f81b82828151811061321d577f4e487b7100000000000000000000000000000000000000000000000000000000600052603260045260246000fd5b60200101907effffffffffffffffffffffffffffffffffffffffffffffffffffffffffffff1916908160001a905350600485901c94508061325d90614791565b905061317b565b50600084146132a8576040517f08c379a000000000000000000000000000000000000000000000000000000000815260040161329f9061417c565b60405180910390fd5b8091505092915050565b6040518060600160405280600081526020016000815260200160006003811115613305577f4e487b7100000000000000000000000000000000000000000000000000000000600052602160045260246000fd5b81525090565b600061331e6133198461451a565b6144e9565b9050808382526020820190508285602086028201111561333d57600080fd5b60005b8581101561336d57816133538882613377565b845260208401935060208301925050600181019050613340565b5050509392505050565b600081359050613386816148e5565b92915050565b600082601f83011261339d57600080fd5b81356133ad84826020860161330b565b91505092915050565b6000813590506133c5816148fc565b92915050565b6000813590506133da81614913565b92915050565b6000813590506133ef8161492a565b92915050565b60006020828403121561340757600080fd5b600061341584828501613377565b91505092915050565b6000806040838503121561343157600080fd5b600061343f85828601613377565b925050602083013567ffffffffffffffff81111561345c57600080fd5b6134688582860161338c565b9150509250929050565b6000806040838503121561348557600080fd5b600061349385828601613377565b92505060206134a4858286016133e0565b9150509250929050565b6000806000606084860312156134c357600080fd5b60006134d186828701613377565b93505060206134e2868287016133e0565b925050604084013567ffffffffffffffff8111156134ff57600080fd5b61350b8682870161338c565b9150509250925092565b60006020828403121561352757600080fd5b6000613535848285016133b6565b91505092915050565b6000806040838503121561355157600080fd5b600061355f858286016133b6565b925050602061357085828601613377565b9150509250929050565b60008060006060848603121561358f57600080fd5b600061359d868287016133b6565b93505060206135ae86828701613377565b925050604084013567ffffffffffffffff8111156135cb57600080fd5b6135d78682870161338c565b9150509250925092565b6000602082840312156135f357600080fd5b6000613601848285016133cb565b91505092915050565b60006020828403121561361c57600080fd5b600061362a848285016133e0565b91505092915050565b600061363f838361364b565b60208301905092915050565b613654816146bb565b82525050565b613663816146bb565b82525050565b600061367482614556565b61367e8185614579565b935061368983614546565b8060005b838110156136ba5781516136a18882613633565b97506136ac8361456c565b92505060018101905061368d565b5085935050505092915050565b6136d0816146cd565b82525050565b6136df816146d9565b82525050565b6136ee8161474c565b82525050565b6136fd8161474c565b82525050565b600061370e82614561565b613718818561458a565b935061372881856020860161475e565b613731816148c0565b840191505092915050565b600061374782614561565b613751818561459b565b935061376181856020860161475e565b80840191505092915050565b600061377a60208361458a565b91507f537472696e67733a20686578206c656e67746820696e73756666696369656e746000830152602082019050919050565b60006137ba60208361458a565b91507f524d3a204368692043544d206d6f692064756f6320676f692068616d206e61796000830152602082019050919050565b60006137fa60318361458a565b91507f524d3a204b686f6e6720636f20717579656e2074727579206361702074686f6e60008301527f672074696e20766f6e20646520787561740000000000000000000000000000006020830152604082019050919050565b600061386060178361458a565b91507f524d3a2043616e206e67756f69207068652064757965740000000000000000006000830152602082019050919050565b60006138a060308361458a565b91507f524d3a204b686f6e67206475207479206c6520636f207068616e20424448207060008301527f68652064757965742064652078756174000000000000000000000000000000006020830152604082019050919050565b600061390660188361458a565b91507f524d3a20436869204744204b686f2064756f63207068657000000000000000006000830152602082019050919050565b600061394660228361458a565b91507f524d3a20566f6e20676f7020646520787561742070686169206c6f6e20686f6e60008301527f20300000000000000000000000000000000000000000000000000000000000006020830152604082019050919050565b60006139ac601a8361458a565b91507f524d3a20546169206b686f616e206b686f6e6720686f70206c650000000000006000830152602082019050919050565b60006139ec602c8361458a565b91507f524d3a20556e67207669656e206b686f6e67206f207472616e6720746861692060008301527f63686f20786163206e68616e00000000000000000000000000000000000000006020830152604082019050919050565b6000613a5260318361458a565b91507f524d3a204b686f6e67206475207479206c6520636f207068616e20424448207060008301527f6865206475796574207669656320786f610000000000000000000000000000006020830152604082019050919050565b6000613ab8603e8361458a565b91507f524d3a204e67756f6920706865206475796574206b686f6e672070686169207460008301527f68616e68207669656e2042444820686f617420646f6e6720686f70206c6500006020830152604082019050919050565b6000613b1e60218361458a565b91507f524d3a204469612063686920756e67207669656e206b686f6e6720686f70206c60008301527f65000000000000000000000000000000000000000000000000000000000000006020830152604082019050919050565b6000613b84602b8361458a565b91507f524d3a205661692074726f206b686f6e6720686f70206c65206465204244482060008301527f6361702f74687520686f690000000000000000000000000000000000000000006020830152604082019050919050565b6000613bea601d8361458a565b91507f524d3a20436869204744204375612068616e672064756f6320706865700000006000830152602082019050919050565b6000613c2a601c8361458a565b91507f524d3a20446961206368692043544d206b686f6e6720686f70206c65000000006000830152602082019050919050565b6000613c6a602e8361458a565b91507f524d3a20536f207469656e2043544d2062616f2063616f206b686f6e67206b6860008301527f6f7020766f6920646520787561740000000000000000000000000000000000006020830152604082019050919050565b6000613cd060178361459b565b91507f416363657373436f6e74726f6c3a206163636f756e74200000000000000000006000830152601782019050919050565b6000613d10602a8361458a565b91507f524d3a20436869207468616e68207669656e2042444820686f617420646f6e6760008301527f2064756f632070686570000000000000000000000000000000000000000000006020830152604082019050919050565b6000613d7660348361458a565b91507f524d3a20546169206b686f616e206b686f6e672070686169206c61207468616e60008301527f68207669656e2042444820686f617420646f6e670000000000000000000000006020830152604082019050919050565b6000613ddc60388361458a565b91507f524d3a2043616e206974206e686174206d6f74206e67756f692070686520647560008301527f79657420286b686163206e67756f6920646520787561742900000000000000006020830152604082019050919050565b6000613e4260438361458a565b91507f524d3a204e67756f692064652078756174206b686f6e672064756f632074752060008301527f7068652064757965742074726f6e672064616e68207361636820617070726f7660208301527f65727300000000000000000000000000000000000000000000000000000000006040830152606082019050919050565b6000613ece60178361458a565b91507f524d3a204368692041646d696e2064756f6320706865700000000000000000006000830152602082019050919050565b6000613f0e60378361458a565b91507f524d3a20556e67207669656e20646120746f6e2074616920686f61632064616e60008301527f672074726f6e6720717561207472696e68207875206c790000000000000000006020830152604082019050919050565b6000613f7460118361459b565b91507f206973206d697373696e6720726f6c65200000000000000000000000000000006000830152601182019050919050565b6000613fb4602f8361458a565b91507f416363657373436f6e74726f6c3a2063616e206f6e6c792072656e6f756e636560008301527f20726f6c657320666f722073656c6600000000000000000000000000000000006020830152604082019050919050565b600061401a601e8361458a565b91507f524d3a204b686f6e6720647520636f207068616e2070686520647579657400006000830152602082019050919050565b606082016000820151614063600085018261408f565b506020820151614076602085018261408f565b50604082015161408960408501826136e5565b50505050565b61409881614742565b82525050565b6140a781614742565b82525050565b60006140b882613cc3565b91506140c4828561373c565b91506140cf82613f67565b91506140db828461373c565b91508190509392505050565b60006020820190506140fc600083018461365a565b92915050565b6000602082019050818103600083015261411c8184613669565b905092915050565b600060208201905061413960008301846136c7565b92915050565b600060208201905061415460008301846136d6565b92915050565b600060208201905081810360008301526141748184613703565b905092915050565b600060208201905081810360008301526141958161376d565b9050919050565b600060208201905081810360008301526141b5816137ad565b9050919050565b600060208201905081810360008301526141d5816137ed565b9050919050565b600060208201905081810360008301526141f581613853565b9050919050565b6000602082019050818103600083015261421581613893565b9050919050565b60006020820190508181036000830152614235816138f9565b9050919050565b6000602082019050818103600083015261425581613939565b9050919050565b600060208201905081810360008301526142758161399f565b9050919050565b60006020820190508181036000830152614295816139df565b9050919050565b600060208201905081810360008301526142b581613a45565b9050919050565b600060208201905081810360008301526142d581613aab565b9050919050565b600060208201905081810360008301526142f581613b11565b9050919050565b6000602082019050818103600083015261431581613b77565b9050919050565b6000602082019050818103600083015261433581613bdd565b9050919050565b6000602082019050818103600083015261435581613c1d565b9050919050565b6000602082019050818103600083015261437581613c5d565b9050919050565b6000602082019050818103600083015261439581613d03565b9050919050565b600060208201905081810360008301526143b581613d69565b9050919050565b600060208201905081810360008301526143d581613dcf565b9050919050565b600060208201905081810360008301526143f581613e35565b9050919050565b6000602082019050818103600083015261441581613ec1565b9050919050565b6000602082019050818103600083015261443581613f01565b9050919050565b6000602082019050818103600083015261445581613fa7565b9050919050565b600060208201905081810360008301526144758161400d565b9050919050565b6000606082019050614491600083018461404d565b92915050565b60006020820190506144ac600083018461409e565b92915050565b60006060820190506144c7600083018661409e565b6144d4602083018561409e565b6144e160408301846136f4565b949350505050565b6000604051905081810181811067ffffffffffffffff821117156145105761450f614891565b5b8060405250919050565b600067ffffffffffffffff82111561453557614534614891565b5b602082029050602081019050919050565b6000819050602082019050919050565b600081519050919050565b600081519050919050565b6000602082019050919050565b600082825260208201905092915050565b600082825260208201905092915050565b600081905092915050565b60006145b182614742565b91506145bc83614742565b9250827fffffffffffffffffffffffffffffffffffffffffffffffffffffffffffffffff038211156145f1576145f0614804565b5b828201905092915050565b600061460782614742565b915061461283614742565b92508261462257614621614833565b5b828204905092915050565b600061463882614742565b915061464383614742565b9250817fffffffffffffffffffffffffffffffffffffffffffffffffffffffffffffffff048311821515161561467c5761467b614804565b5b828202905092915050565b600061469282614742565b915061469d83614742565b9250828210156146b0576146af614804565b5b828203905092915050565b60006146c682614722565b9050919050565b60008115159050919050565b6000819050919050565b60007fffffffff0000000000000000000000000000000000000000000000000000000082169050919050565b600081905061471d826148d1565b919050565b600073ffffffffffffffffffffffffffffffffffffffff82169050919050565b6000819050919050565b60006147578261470f565b9050919050565b60005b8381101561477c578082015181840152602081019050614761565b8381111561478b576000848401525b50505050565b600061479c82614742565b915060008214156147b0576147af614804565b5b600182039050919050565b60006147c682614742565b91507fffffffffffffffffffffffffffffffffffffffffffffffffffffffffffffffff8214156147f9576147f8614804565b5b600182019050919050565b7f4e487b7100000000000000000000000000000000000000000000000000000000600052601160045260246000fd5b7f4e487b7100000000000000000000000000000000000000000000000000000000600052601260045260246000fd5b7f4e487b7100000000000000000000000000000000000000000000000000000000600052602160045260246000fd5b7f4e487b7100000000000000000000000000000000000000000000000000000000600052604160045260246000fd5b6000601f19601f8301169050919050565b600481106148e2576148e1614862565b5b50565b6148ee816146bb565b81146148f957600080fd5b50565b614905816146d9565b811461491057600080fd5b50565b61491c816146e3565b811461492757600080fd5b50565b61493381614742565b811461493e57600080fd5b5056fea2646970667358221220251d181116c8c2e5cc6845bd60b1100ce4e889546d210205759b7c70640b222364736f6c63430008000033",
  "immutableReferences": {},
  "source": "// SPDX-License-Identifier: MIT\r\npragma solidity ^0.8.0;\r\n\r\nimport \"@openzeppelin/contracts/access/AccessControl.sol\";\r\n\r\ncontract RoleManagement is AccessControl {\r\n    bytes32 public constant BOARD_ROLE = keccak256(\"BOARD_ROLE\");\r\n    bytes32 public constant WAREHOUSE_DIRECTOR_ROLE = keccak256(\"WAREHOUSE_DIRECTOR_ROLE\");\r\n    bytes32 public constant STORE_DIRECTOR_ROLE = keccak256(\"STORE_DIRECTOR_ROLE\");\r\n    bytes32 public constant FINANCE_DIRECTOR_ROLE = keccak256(\"FINANCE_DIRECTOR_ROLE\");\r\n    bytes32 public constant WAREHOUSE_MANAGER_ROLE = keccak256(\"WAREHOUSE_MANAGER_ROLE\");\r\n    bytes32 public constant STORE_MANAGER_ROLE = keccak256(\"STORE_MANAGER_ROLE\");\r\n    bytes32 public constant SUPPLIER_ROLE = keccak256(\"SUPPLIER_ROLE\");\r\n\r\n    enum BoardMemberStatus {\r\n        None,\r\n        PendingConfirmation,\r\n        Active,\r\n        Removed\r\n    }\r\n\r\n    struct BoardMember {\r\n        uint256 shareCapitalProposed;\r\n        uint256 shareCapitalContributed;\r\n        BoardMemberStatus status;\r\n    }\r\n\r\n    mapping(address => BoardMember) public boardMembers;\r\n    address[] public boardAddresses;\r\n    uint256 public totalCapital;\r\n    address public companyTreasuryManagerAddress;\r\n\r\n    event BoardMemberProposed(address indexed candidate, uint256 shareCapitalProposed);\r\n    event BoardMemberActivated(address indexed member, uint256 shareCapitalContributed);\r\n    event BoardMemberRemoved(address indexed member);\r\n    event CompanyTreasuryManagerAddressSet(address indexed ctmAddress);\r\n\r\n    constructor() {\r\n        // 1. Cp vai tr Admin cho ngi deploy\r\n        _grantRole(DEFAULT_ADMIN_ROLE, msg.sender);\r\n\r\n        // 2. Thit lp ngi deploy lm thnh vin BH hot ng u tin\r\n        // Gi s ngi deploy ng gp mt s vn ban u.\r\n        // Nu khng, initialCapitalContribution c th l 0.\r\n        address initialBoardMember = msg.sender;\r\n        uint256 initialCapitalContribution = uint256(70 ether); // V d vn gp ban u\r\n        require(initialBoardMember != address(0), \"RM: Dia chi nguoi trien khai khong hop le\");\r\n        // require(initialCapitalContribution >= 0, \"RM: Von gop ban dau khong the am\"); // Vn c th l 0\r\n\r\n        BoardMember storage member = boardMembers[initialBoardMember];\r\n        member.shareCapitalProposed = initialCapitalContribution;\r\n        member.shareCapitalContributed = initialCapitalContribution;\r\n        member.status = BoardMemberStatus.Active;\r\n\r\n        boardAddresses.push(initialBoardMember);\r\n        _grantRole(BOARD_ROLE, initialBoardMember);\r\n\r\n        totalCapital = initialCapitalContribution;\r\n\r\n        emit BoardMemberActivated(initialBoardMember, initialCapitalContribution);\r\n    }\r\n    \r\n    modifier onlyAdmin() {\r\n        require(hasRole(DEFAULT_ADMIN_ROLE, msg.sender), \"RM: Chi Admin duoc phep\");\r\n        _;\r\n    }\r\n    \r\n    modifier onlyActiveBoardMember() {\r\n        require(boardMembers[msg.sender].status == BoardMemberStatus.Active && hasRole(BOARD_ROLE, msg.sender), \"RM: Chi thanh vien BDH hoat dong duoc phep\");\r\n        _;\r\n    }\r\n\r\n    modifier onlyCTM() {\r\n        require(msg.sender == companyTreasuryManagerAddress, \"RM: Chi CTM moi duoc goi ham nay\");\r\n        _;\r\n    }\r\n\r\n    function setCompanyTreasuryManagerAddress(address _ctmAddress) external onlyAdmin {\r\n        require(_ctmAddress != address(0), \"RM: Dia chi CTM khong hop le\");\r\n        companyTreasuryManagerAddress = _ctmAddress;\r\n        emit CompanyTreasuryManagerAddressSet(_ctmAddress);\r\n    }\r\n\r\n    function getSharesPercentage(address account) public view returns (uint256) {\r\n        if (boardMembers[account].status != BoardMemberStatus.Active || totalCapital == 0) {\r\n            return 0;\r\n        }\r\n        return (boardMembers[account].shareCapitalContributed * 10000) / totalCapital;\r\n    }\r\n\r\n    function _sumSharesPercentage(address[] memory approvers) internal view returns (uint256) {\r\n        uint256 totalPercentageSum = 0;\r\n        for (uint i = 0; i < approvers.length; i++) {\r\n            require(boardMembers[approvers[i]].status == BoardMemberStatus.Active && hasRole(BOARD_ROLE, approvers[i]), \"RM: Nguoi phe duyet khong phai thanh vien BDH hoat dong hop le\");\r\n            totalPercentageSum += getSharesPercentage(approvers[i]);\r\n        }\r\n        return totalPercentageSum;\r\n    }\r\n\r\n    function proposeBoardMember(address _candidate, uint256 _shareCapitalProposed, address[] memory _approvers)\r\n        external\r\n        onlyActiveBoardMember\r\n    {\r\n        require(_candidate != address(0), \"RM: Dia chi ung vien khong hop le\");\r\n        BoardMember storage member = boardMembers[_candidate];\r\n        require(member.status == BoardMemberStatus.None, \"RM: Ung vien da ton tai hoac dang trong qua trinh xu ly\");\r\n        require(_shareCapitalProposed > 0, \"RM: Von gop de xuat phai lon hon 0\");\r\n        require(_approvers.length > 0, \"RM: Can it nhat mot nguoi phe duyet (khac nguoi de xuat)\");\r\n\r\n        for(uint i = 0; i < _approvers.length; i++) {\r\n            require(_approvers[i] != msg.sender, \"RM: Nguoi de xuat khong duoc tu phe duyet trong danh sach approvers\");\r\n        }\r\n\r\n        uint256 approvalSharesPercent = _sumSharesPercentage(_approvers);\r\n        require(approvalSharesPercent > 5000, \"RM: Khong du ty le co phan BDH phe duyet de xuat\");\r\n\r\n        member.shareCapitalProposed = _shareCapitalProposed;\r\n        member.status = BoardMemberStatus.PendingConfirmation;\r\n        \r\n        emit BoardMemberProposed(_candidate, _shareCapitalProposed);\r\n    }\r\n\r\n    function activateBoardMemberByTreasury(address _candidate, uint256 _contributedAmount) \r\n        external \r\n        onlyCTM \r\n    {\r\n        BoardMember storage member = boardMembers[_candidate];\r\n        require(member.status == BoardMemberStatus.PendingConfirmation, \"RM: Ung vien khong o trang thai cho xac nhan\");\r\n        require(_contributedAmount == member.shareCapitalProposed, \"RM: So tien CTM bao cao khong khop voi de xuat\");\r\n\r\n        member.status = BoardMemberStatus.Active;\r\n        member.shareCapitalContributed = _contributedAmount;\r\n        \r\n        bool alreadyInArray = false;\r\n        for(uint i = 0; i < boardAddresses.length; i++){\r\n            if(boardAddresses[i] == _candidate){\r\n                alreadyInArray = true;\r\n                break;\r\n            }\r\n        }\r\n        if(!alreadyInArray){\r\n            boardAddresses.push(_candidate);\r\n        }\r\n\r\n        _grantRole(BOARD_ROLE, _candidate);\r\n        totalCapital += _contributedAmount;\r\n        emit BoardMemberActivated(_candidate, _contributedAmount);\r\n    }\r\n    \r\n    function getProposedShareCapital(address _candidate) external view returns (uint256) {\r\n        require(msg.sender == companyTreasuryManagerAddress || hasRole(DEFAULT_ADMIN_ROLE, msg.sender) || (boardMembers[msg.sender].status == BoardMemberStatus.Active && hasRole(BOARD_ROLE, msg.sender)), \r\n                \"RM: Khong co quyen truy cap thong tin von de xuat\");\r\n        \r\n        if (boardMembers[_candidate].status == BoardMemberStatus.PendingConfirmation) {\r\n            return boardMembers[_candidate].shareCapitalProposed;\r\n        }\r\n        return 0;\r\n    }\r\n\r\n    function removeBoardMember(address _accountToRemove, address[] memory _approvers)\r\n        external\r\n        onlyActiveBoardMember\r\n    {\r\n        require(boardMembers[_accountToRemove].status == BoardMemberStatus.Active, \"RM: Tai khoan khong phai la thanh vien BDH hoat dong\");\r\n        uint256 approvalSharesPercent = _sumSharesPercentage(_approvers);\r\n        require(approvalSharesPercent > 5000, \"RM: Khong du ty le co phan BDH phe duyet viec xoa\");\r\n\r\n        totalCapital -= boardMembers[_accountToRemove].shareCapitalContributed;\r\n        _revokeRole(BOARD_ROLE, _accountToRemove);\r\n        boardMembers[_accountToRemove].status = BoardMemberStatus.Removed;\r\n\r\n        for (uint i = 0; i < boardAddresses.length; i++) {\r\n            if (boardAddresses[i] == _accountToRemove) {\r\n                boardAddresses[i] = boardAddresses[boardAddresses.length - 1];\r\n                boardAddresses.pop();\r\n                break;\r\n            }\r\n        }\r\n        emit BoardMemberRemoved(_accountToRemove);\r\n    }\r\n\r\n    function grantRoleByBoard(bytes32 role, address account, address[] memory approvers) external onlyActiveBoardMember {\r\n        require(\r\n            role == WAREHOUSE_DIRECTOR_ROLE ||\r\n            role == STORE_DIRECTOR_ROLE ||\r\n            role == FINANCE_DIRECTOR_ROLE ||\r\n            role == SUPPLIER_ROLE, \"RM: Vai tro khong hop le de BDH cap/thu hoi\"\r\n        );\r\n        require(account != address(0), \"RM: Tai khoan khong hop le\");\r\n        require(approvers.length > 0, \"RM: Can nguoi phe duyet\");\r\n        uint256 approvalSharesPercent = _sumSharesPercentage(approvers);\r\n        require(approvalSharesPercent > 5000, \"RM: Khong du co phan phe duyet\");\r\n        _grantRole(role, account);\r\n    }\r\n\r\n    function revokeRoleByBoard(bytes32 role, address account, address[] memory approvers) external onlyActiveBoardMember {\r\n         require(\r\n            role == WAREHOUSE_DIRECTOR_ROLE ||\r\n            role == STORE_DIRECTOR_ROLE ||\r\n            role == FINANCE_DIRECTOR_ROLE ||\r\n            role == SUPPLIER_ROLE, \"RM: Vai tro khong hop le de BDH cap/thu hoi\"\r\n        );\r\n        require(account != address(0), \"RM: Tai khoan khong hop le\");\r\n        require(approvers.length > 0, \"RM: Can nguoi phe duyet\");\r\n        uint256 approvalSharesPercent = _sumSharesPercentage(approvers);\r\n        require(approvalSharesPercent > 5000, \"RM: Khong du co phan phe duyet\");\r\n        _revokeRole(role, account);\r\n    }\r\n\r\n    function grantWarehouseManager(address account) external {\r\n        require(hasRole(WAREHOUSE_DIRECTOR_ROLE, msg.sender), \"RM: Chi GD Kho duoc phep\");\r\n        _grantRole(WAREHOUSE_MANAGER_ROLE, account);\r\n    }\r\n    function revokeWarehouseManager(address account) external {\r\n         require(hasRole(WAREHOUSE_DIRECTOR_ROLE, msg.sender), \"RM: Chi GD Kho duoc phep\");\r\n        _revokeRole(WAREHOUSE_MANAGER_ROLE, account);\r\n    }\r\n\r\n    function grantStoreManager(address account) external {\r\n        require(hasRole(STORE_DIRECTOR_ROLE, msg.sender), \"RM: Chi GD Cua hang duoc phep\");\r\n        _grantRole(STORE_MANAGER_ROLE, account);\r\n    }\r\n    function revokeStoreManager(address account) external {\r\n        require(hasRole(STORE_DIRECTOR_ROLE, msg.sender), \"RM: Chi GD Cua hang duoc phep\");\r\n        _revokeRole(STORE_MANAGER_ROLE, account);\r\n    }\r\n\r\n    function getBoardMembers() external view returns (address[] memory) { return boardAddresses; }\r\n    function getBoardMemberInfo(address member) external view returns (BoardMember memory) { return boardMembers[member]; }\r\n\r\n    function BOARD_ROLE_ID() external pure returns (bytes32) { return BOARD_ROLE; }\r\n    function WAREHOUSE_DIRECTOR_ROLE_ID() external pure returns (bytes32) { return WAREHOUSE_DIRECTOR_ROLE; }\r\n    function STORE_DIRECTOR_ROLE_ID() external pure returns (bytes32) { return STORE_DIRECTOR_ROLE; }\r\n    function FINANCE_DIRECTOR_ROLE_ID() external pure returns (bytes32) { return FINANCE_DIRECTOR_ROLE; }\r\n    function WAREHOUSE_MANAGER_ROLE_ID() external pure returns (bytes32) { return WAREHOUSE_MANAGER_ROLE; }\r\n    function STORE_MANAGER_ROLE_ID() external pure returns (bytes32) { return STORE_MANAGER_ROLE; }\r\n    function SUPPLIER_ROLE_ID() external pure returns (bytes32) { return SUPPLIER_ROLE; }\r\n    function DEFAULT_ADMIN_ROLE_ID() external pure returns (bytes32) { return DEFAULT_ADMIN_ROLE; }\r\n}",
  "sourcePath": "D:\\nhi\\Logtech\\New tech in Log\\dapp\\truffle\\contracts\\RoleManagement.sol",
  "compiler": {
    "name": "solc",
    "version": "0.8.0+commit.c7dfd78e.Emscripten.clang"
  },
  "schemaVersion": "3.4.16",
  "updatedAt": "2025-05-31T21:22:30.809Z",
  "networkType": "ethereum",
  "devdoc": {
    "kind": "dev",
    "methods": {
      "getRoleAdmin(bytes32)": {
        "details": "Returns the admin role that controls `role`. See {grantRole} and {revokeRole}. To change a role's admin, use {_setRoleAdmin}."
      },
      "grantRole(bytes32,address)": {
        "details": "Grants `role` to `account`. If `account` had not been already granted `role`, emits a {RoleGranted} event. Requirements: - the caller must have ``role``'s admin role. May emit a {RoleGranted} event."
      },
      "hasRole(bytes32,address)": {
        "details": "Returns `true` if `account` has been granted `role`."
      },
      "renounceRole(bytes32,address)": {
        "details": "Revokes `role` from the calling account. Roles are often managed via {grantRole} and {revokeRole}: this function's purpose is to provide a mechanism for accounts to lose their privileges if they are compromised (such as when a trusted device is misplaced). If the calling account had been revoked `role`, emits a {RoleRevoked} event. Requirements: - the caller must be `account`. May emit a {RoleRevoked} event."
      },
      "revokeRole(bytes32,address)": {
        "details": "Revokes `role` from `account`. If `account` had been granted `role`, emits a {RoleRevoked} event. Requirements: - the caller must have ``role``'s admin role. May emit a {RoleRevoked} event."
      },
      "supportsInterface(bytes4)": {
        "details": "See {IERC165-supportsInterface}."
      }
    },
    "version": 1
  },
  "userdoc": {
    "kind": "user",
    "methods": {},
    "version": 1
  }
}